:1000000002080002000000000000000200000000E2
:1000100000000002000000000000000200000000DC
:06002000000000020000D8
:03002600000022B5
:0A0029007E127FD4DFFEDEFC002211
:050033007F29DFFE2221
:10003800E5465480F8630080E86004780080027820
:1000480001E81392A7E5465440F8630040E86004CD
:10005800780080027801E81392A6E5465420F863F8
:100068000020E86004780080027801E81392A5E592
:10007800465410F8630010E86004780080027801A4
:10008800E81392A4E5096004780080027801E81377
:1000980092A2D2A31126C2A3E5465408F863000829
:1000A800E86004780080027801E81392A7E54654D6
:1000B80004F8630004E86004780080027801E8131B
:1000C80092A6E5465402F8630002E86004780080CE
:1000D800027801E81392A5E5465401F8630001E8A7
:1000E8006004780080027801E81392A4E5096004AE
:1000F800780080027801E81392A2D2A31126C2A345
:0B010800E50960041129800211332278
:10011300C29111261126D290C3E50892E0F508207A
:100123009009E50830E002800280F41126112611BF
:100133002611261126112611261126D291112611D8
:02014300262272
:10014500754101754200754380754400E54345449A
:10015500604E1126112611261126C2901126112650
:10016500E5405543F8E45544F9E8496004D29180E7
:1001750002C29111261126D290C3E50892E0F50836
:10018500209009E50830E002800280F47801E5441A
:10019500088007C313C54313C543D8F7F54480AC9E
:1001A50075410075420011261126C29011261126AF
:1001B500D2911126112611261126D290C3E5089257
:1001C500E0F508209009E50830E002800280F4752A
:1001D5004100754200112611263091064341014325
:1001E5004200112611261126112611261126112647
:1001F5001126112611261126112611261126112642
:0B0205001126C290C291A841A942221C
:10021000D29111261126D29011261126C2911126B3
:050220001126C290222E
:10022500754200754300754480754500E5444545B4
:10023500604411261126D29111261126D290C3E5CC
:100245000892E0F508209009E50830E00280028078
:10025500F4309108E5444242E54542431126112612
:10026500C2907801E545088007C313C54413C5440A
:10027500D8F7F54580B6D29111261126E5404541BE
:100285006002C29111261126D290C3E50892E0F5CD
:1002950008209009E50830E002800280F41126115B
:0E02A50026C29011261126C291A842A943221A
:0C02B300750900854046113875090122CC
:1002BF00753A00753B00753C00753D00753E007545
:1002CF003F00511075404731457540017541005150
:1002DF002585003F754000754100512585003E3151
:1002EF0013A93F78007A00E53E4200E44201850001
:1002FF003A85013BE4F53CE4F53DA83AA93BAA3C1D
:03030F00AB3D22E1
:10031200BD000BB90029E88CF084F8ACF022E4CDE2
:10032200FF75F008E828F8E933F9ED33FDE99CEDB3
:100332009F4005FDE99CF908D5F0E9E4C9FC22ECEF
:10034200FFF5F0E98420D21CF9ACF075F008E8283A
:10035200F8EC33FC40079F5006D5F0F222C39FFC15
:0503620008D5F0EA22BD
:100367003392D530D503120392EB334010E833F8BC
:10037700E933F9EA33FAEB33FBD5F0ED22E5F02464
:100387007EA2D513CB92E7CAC9F822C3E498F8E452
:0903970099F9E49AFAE49BFB22B7
:1003A000EC600FEBC313FBEA13FAE913F9E813F857
:0303B000DCF1225B
:0F03B30051107540463145852C4031453113229C
:1003C200C2A3C2A2112911291129C2A7C2A6C2A57C
:1003D200C2A4D2A5D2A4D2A31126C2A31129D2A308
:1003E2001126C2A31129D2A31126C2A31129D2A573
:1003F200C2A4D2A31126C2A31129C2A7C2A6C2A512
:10040200D2A5C2A4D2A31126C2A3C2A5D2A7D2A3A7
:100412001126C2A31129C2A7D2A4D2A31126C2A314
:10042200C2A4D2A31126C2A31129C2A4D2A3112607
:10043200C2A3D2A4D2A31126C2A31129C2A4D2A3B9
:100442001126C2A3D2A7D2A6D2A5D2A4D2A3112684
:08045200C2A311297509012262
:10045A00D291D290C3E50892E0F508209009E50808
:08046A0030E002800280F42260
:100472008019752C80802E752CC08029752C948053
:1004820024752CD4801F752C80801AE52C640160A1
:10049200E1E52C640260E0E52C640360DFE52C6496
:1004A2000460DE80E1C3E52D9401F8E52C28F8858F
:1004B200002C8500461138750900752F00E52E25A0
:1004C2002FF8E6600DE52E252FF8864051B3052F53
:0604D20080EB7509012218
:1004D800752700C3E5279406500BE5252527F876F0
:1004E80030052780EEE5252527F87600E523452405
:1004F800700122752600C3E523940074006480F817
:10050800E5246480985012752601C374009523F57C
:100518002874009524F529800685232885242975C3
:100528002705E52845296032E5252527F885002A8D
:100538007C0A7D00A828A9297112A804A90574308D
:1005480028F9A82AA60115277C0A7D00A828A92928
:10055800711285002885012980C8E5266004A82530
:03056800762D22CB
:08056B00E493F608A3D9F9227C
:10057300915A71C2754601113875460C1138752CA4
:1005830001752D01752E309172752C02752D017533
:050593002E35917222DB
:0705980075F020E4716722F9
:10059F00752600752700752800752900752A0075C6
:1005AF002B00752B00C3E52B94085043752C01715C
:1005BF00B385232C71B351BFE82526F526E93527DE
:1005CF00F527E43528F528E43529F529752A00C3E0
:1005DF00E52A9524E49525500D7E047F3CDFFEDE51
:1005EF00FC00052A80E9752C0071B3052B80B67CC1
:1005FF0003A826A927AA28AB2971A0850026850163
:0C060F0027850228850329E4FAE4FB2279
:10061B00EAD2E7CA33EB3392D524814006E4F8F9EA
:10062B00FAFB22FBE4C8C9CACB24E0501174FF804B
:10063B00EDC3CB13CBCA13CAC913C9C813C80470F3
:10064B00F030D5DEC3E498F8E499F9E49AFAE49B28
:02065B00FB2280
:10065D00EB4A6011EF4E7017EA33EB3304600DE493
:10066D00FBF8F9FA22EE33EF330470F80207961215
:10067D0007615F046009E4CB248150062F50090205
:10068D0007A02F400302079DC0E0EC4D7044BE80D3
:10069D0006D0E0FC02078CE849701CBA8008ECF823
:1006AD00EDF9EEFA80EBEE8AF0A4F9E5F0020746DB
:1006BD00EECAFEEDF9ECF8E88EF0A4FBE5F0C98E7C
:1006CD00F0A429F8E435F0CA8EF0A42AF9E435F047
:1006DD008067E8497005BA80D780C3E88CF0A4AB79
:1006ED00F0E98CF0A42BFBE435F0FFE88DF0A42BA2
:1006FD00E5F03FFBE433CC8AF0A42BFBE5F03CFFA7
:10070D00E98DF0A42BFBE5F03FFFE433C88EF0A498
:10071D002BFBE5F03FC83400C98EF0A428F8E5F0B6
:10072D0039F9E433CE8AF0A429F9E5F03ECA8DF00B
:10073D00A428F8E5F039F9E43AFA33D0E0FC500694
:10074D000CBC000E804DEB2BFBE833F8E933F9EAD6
:10075D0033FA8017EED2E7CE33EF33FF92D5EAD2DC
:10076D00E7CA33EB33FB5002B2D522EB30E710086A
:10077D00B8000C09B900080ABA00040CEC6014A208
:10078D00D5EC13FBEA92E7FA2274FFFBFAF9F82293
:0F079D00E480F8A2D574FF13FB7A80E480EF228A
:0E07C0007830790A7582B675830712056B22B0
:100800007581471207C07582AC758307780A790A2B
:1008100012056B12057375231375241475250012C8
:10082000059F85000A85010BD3E8940AE9940040EE
:1008300015A80AA90B12059885000C85010D8502E3
:100840000E85030F801B75231075248C75250012EF
:10085000059F12059885000C85010D85020E850304
:100860000FA80CA90DAA0EAB0F7CF37D437EBE75BD
:10087000073D12065D850010850111850212850372
:1008800013A80CA90DAA0EAB0F12061B8500238519
:1008900001247525141204D8752C01752D0B752EA5
:1008A00014120472A810A911AA12AB1312061B8508
:1008B00000238501247525141204D8752C02752D8A
:0B08C0000B752E14120472011680FE4E
:0207AC0000004B
:0407AE000000000047
:0407B2000000000043
:0507B6004C75783A00CB
:0507BB00462D433A0049
:00000001FF
