:10000000020460020436000000000002000000004C
:1000100000000002000000000000000200000000DC
:06002000000000020000D8
:060026007F18DFFE00223E
:09002C007E0B7FB2DFFEDEFC2238
:020035000022A7
:10003700E52D5480F8630080E8600478008002783A
:1000470001E8139287E52D5440F8630040E8600407
:10005700780080027801E8139286E52D5420F86332
:100067000020E86004780080027801E8139285E5B3
:100077002D5410F8630010E86004780080027801BE
:10008700E8139284E5086004780080027801E81399
:1000970092A6D2A71135C2A7E52D5408F863000828
:1000A700E86004780080027801E8139287E52D5410
:1000B70004F8630004E86004780080027801E8131C
:1000C7009286E52D5402F8630002E8600478008008
:1000D700027801E8139285E52D5401F8630001E8E1
:1000E7006004780080027801E8139284E5086004D0
:1000F700780080027801E81392A6D2A71135C2A72B
:0B010700E5086004112C800211262284
:0C011200750800852C2D1137750801229E
:10011E00BD000BB90029E88CF084F8ACF022E4CDD8
:10012E00FF75F008E828F8E933F9ED33FDE99CEDA9
:10013E009F4005FDE99CF908D5F0E9E4C9FC22ECE5
:10014E00FFF5F0E98420D21CF9ACF075F008E82830
:10015E00F8EC33FC40079F5006D5F0F222C39FFC0B
:05016E0008D5F0EA22B3
:10017300C2A7C2A6112C112C112CC287C286C2851C
:10018300C284D285D284D2A71135C2A7112CD2A79B
:100193001135C2A7112CD2A71135C2A7112CD285B4
:1001A300C284D2A71135C2A7112CC287C286C285C9
:1001B300D285C284D2A71135C2A7C285D287D2A75E
:1001C3001135C2A7112CC287D284D2A71135C2A779
:1001D300C284D2A71135C2A7112CC284D2A711356C
:1001E300C2A7D284D2A71135C2A7112CC284D2A729
:1001F3001135C2A7D287D286D285D284D2A7113530
:08020300C2A7112C75080122AD
:10020B008019752880802E7528C0802975289480C8
:10021B00247528D4801F752880801AE52864016016
:10022B00E1E528640260E0E528640360DFE528640B
:10023B000460DE80E1C3E5299401F8E52828F88500
:10024B00002885002D1137750800752B00E52A2530
:10025B002BF8E6600DE52A252BF8862C3112052BA1
:06026B0080EB7508012282
:08027100E493F608A3D9F92279
:10027900803C75F008758200E828F8E933F9CA333B
:10028900CACB33CBC58233C5829CEA9DEB9EE582FE
:100299009F400CF582E99CF9EA9DFAEB9EFB08D593
:1002A900F0D6E4C9FCE4CAFDE4CBFEAF8222EF60DC
:1002B9000280BFEE6002805BED6002802DEB8CF066
:1002C90084C8C9CAFBE5F0CCFE7F18E828F8E933F1
:1002D900F9EA33FAEB33FBEC33FC10D7039E400405
:1002E900EC9EFC08DFE5E4FEFD227F18E828F8E92A
:1002F90033F9EA33FAEB33FBCE33CE10D7059CEE54
:100309009D4007EB9CFBEE9DFE08DFE0E4CEFDE49B
:10031900CBFC2275F010E828F8E933F9EA33FACB77
:1003290033CBCF33CF10D7079CEB9DEF9E400AEA22
:100339009CFAEB9DFBEF9EFF08D5F0DAE4CAFCE4DA
:06034900CBFDE4CFFE2213
:10034F007580FF7590FF75A0FF75B0FFC2A575A8EA
:10035F00817588117589093173752D011137752DC7
:10036F000C113775280175290175827E7583057803
:10037F0037790A5171752A37510B75280275290182
:10038F007582887583057841790A5171752A4151B3
:02039F000B222F
:1003A100752E00752F00858C2EE4F52FA92E78006F
:1003B10085002E85012FE58A4200E4420185002E49
:0403C10085012F2261
:0703C500758C00758A00220F
:1003CC00EC600FEBC313FBEA13FAE913F9E813F82B
:0303DC00DCF1222F
:1003DF00752600C3E5269405500BE5252526F876EE
:1003EF0020052680EEE5252526F876001526E5253D
:1003FF002526F88500277C0A7D00A823A924311E15
:10040F00A804A905743028F9A827A6017C0A7D0045
:10041F00A823A924311E850023850124E8497002F1
:07042F008004152680C8229D
:10043600C000C001C0D0C0E0C0F0C082C083E5B03B
:1004460020E20871A1850031850132D083D082D0A7
:0A045600F0D0E0D0D0D001D0003289
:1004600075814B1205A7751500751600714F71C582
:10047000753100753200D3E5B092E1F5B07F04DF4D
:10048000FE00C3E5B092E1F5B07E4E7FD1DFFEDE27
:10049000FCE5312533F533E5323534F534E43535D3
:1004A000F535E43536F536D3E530940F5002A178B2
:1004B0007C04A833A934AA35AB3671CC85003385CA
:1004C00001348502358503368500158501167C3A91
:1004D0007D007E00750700517985003385013485E4
:1004E0000235850336C3E89470E99494EA9400EBEE
:1004F0009400403C75280175290C750920750A2067
:10050000750B4D750C41750D58750E00752A095106
:100510000B75280275290C750F2075102075114D6B
:10052000751241751358751400752A0F510B802CE4
:1005300085332385342475251771DF7528017529C6
:100540000C752A17510B85152385162475251771EF
:10055000DF75280275290C752A17510B7D057E90D1
:100560007F49DFFEDEFCDDFA00753300753400756F
:0E05700035007536007530000530816E80FE56
:0E05A700783079077582A075830512027122E3
:0A057E0052616E67652F636D3A004D
:0A05880054696D652E2F75533A007B
:0605920020204D4158003D
:0605980020204D41580037
:02059E0000005B
:0105A000005A
:0205A100000058
:0405A3000000000054
:00000001FF
