:100000000204B902043200000000000200000000F7
:1000100000000002000000000000000200000000DC
:06002000000000020000D8
:090026007E0B7FB2DFFEDEFC223E
:06002F007F18DFFE002235
:020035000022A7
:10003700E51A5480F8630080E8600478008002784D
:1000470001E8139287E51A5440F8630040E860041A
:10005700780080027801E8139286E51A5420F86345
:100067000020E86004780080027801E8139285E5B3
:100077001A5410F8630010E86004780080027801D1
:10008700E8139284E5086004780080027801E81399
:1000970092A6D2A71135C2A7E51A5408F86300083B
:1000A700E86004780080027801E8139287E51A5423
:1000B70004F8630004E86004780080027801E8131C
:1000C7009286E51A5402F8630002E860047800801B
:1000D700027801E8139285E51A5401F8630001E8F4
:1000E7006004780080027801E8139284E5086004D0
:1000F700780080027801E81392A6D2A71135C2A72B
:0B010700E508600411268002112F2281
:10011200C2A7C2A6112611261126C287C286C2858F
:10012200C284D285D284D2A71135C2A71126D2A702
:100132001135C2A71126D2A71135C2A71126D28521
:10014200C284D2A71135C2A71126C287C286C28530
:10015200D285C284D2A71135C2A7C285D287D2A7BF
:100162001135C2A71126C287D284D2A71135C2A7E0
:10017200C284D2A71135C2A71126C284D2A71135D3
:10018200C2A7D284D2A71135C2A71126C284D2A790
:100192001135C2A7D287D286D285D284D2A7113591
:0801A200C2A711267508012215
:1001AA00EC600FEBC313FBEA13FAE913F9E813F84F
:0301BA00DCF12253
:1001BD007EB07F17DFFEDEFC7530007531007532C5
:0F01CD0000753300C3E50992E0F50975A881229A
:0C01DC0075080085191A113775080122FA
:0801E800E493F608A3D9F92203
:1001F0007580FF7590FF75A0FF75B0FFC2A575896A
:10020000013112751A011137751A0C113731BD22DF
:10021000EC600FE8C333F8E933F9EA33FAEB33FB68
:03022000DCF122EC
:1002230075130075140075150075160075170075A4
:10023300180074FF5530F515740F5531F516740019
:100243005532F51774005533F518751300C3E513CC
:100253009406400241C07801E514088002C333D8F4
:10026300FCF51474005515F874045516F97400550B
:1002730017FA74005518FBE8494A4B60054314010B
:10028300801F74005515F874085516F97400551736
:10029300FA74005518FBE8494A4B60028003751451
:1002A300FF7C02A815A916AA17AB185110850015D3
:1002B30085011685021785031805134150A812A658
:1002C30014E5305400F8E53154F0F9E53254FFFAFF
:1002D300E5335400FB850015850116850217850358
:1002E300187C0C31AA850015850116850217850334
:1002F30018751400751300C3E51394064002616A70
:100303007801E514088002C333D8FCF51474005552
:1003130015F874045516F974005517FA7400551836
:10032300FBE8494A4B6005431401801F74005515CF
:10033300F874085516F974005517FA74005518FB2C
:10034300E8494A4B600280037514FF7C02A815A993
:1003530016AA17AB185110850015850116850217CB
:10036300850318051341FAE514541FF9A811A601D2
:10037300E5145420FA7805EA088002C313D8FCF97F
:05038300A810A60122F4
:100388008019751080802E7510C080297510948092
:10039800247510D4801F751080801AE510640160E0
:1003A800E1E510640260E0E510640360DFE51064D5
:1003B8000460DE80E1C3E5119401F8E51028F885B2
:1003C800001085001A1137750800751300E512250D
:1003D80013F8E6600DE5122513F8861931DC0513CC
:0603E80080EB7508012204
:1003EE007904E510098002C313D9FCF824A3F8E4BC
:1003FE003405F9850082850183E493FAA811A602DB
:10040E00E5112401F8E510540FF924A3FAE434059C
:10041E00FB850282850383E493F9A601E51124028C
:04042E00F87600223A
:10043200C000C001C002C003C004C006C007C0D0D3
:10044200C0E0C0F0C082C083751B0075A8007E04A6
:100452007F7FDFFEDEFC751B00C3E51B941850375F
:100462007C01A830A931AA32AB3351108500308506
:1004720001318502328503337E027F8DDFFEDEFC91
:10048200E5B0A2E2B3E433F84230E44231E442326E
:10049200E44233051B80C2D3E50992E0F509D0831B
:1004A200D082D0F0D0E0D0D0D007D006D004D00394
:0704B200D002D001D000329E
:1004B9007581621205B7755F00756000756100315D
:1004C900F075100175110575827575830578347994
:1004D9000D31E87512347188751002751101758234
:1004E900827583057841790A31E8751241718875F9
:1004F900100375110175828C758305784B790A3162
:10050900E875124B7188751004751101758296751D
:1005190083057855790A31E87512557188E50930EE
:10052900E04675105F7511607512615123855F1082
:1005390075110A71EE75100275110875120A718824
:1005490085601075110A71EE751003751108751221
:100559000A718885611075110A71EE75100475119B
:0C0569000875120A718831BD80B380FE55
:0E05B700783079047582B37583051201E8224D
:0D05750052432D35204465636F64657200AC
:0A05820054474C3A20307830300026
:0A058C004144523A2030783030002C
:0A059600434D443A20307830300025
:0105A000005A
:0105A1000059
:0105A2000058
:1005A30030313233343536373839414243444546A6
:0405B3000000000044
:00000001FF
