:10000000020A55020000000000000002000000008B
:1000100000000002000000000000000200000000DC
:06002000000000020000D8
:0A0026007E0A7FDBDFFEDEFC002215
:060030007F16DFFE002236
:020036000022A6
:10003800E5715480F8630080E860047800800278F5
:1000480001E81392A7E5715440F8630040E86004A2
:10005800780080027801E81392A6E5715420F863CD
:100068000020E86004780080027801E81392A5E592
:10007800715410F8630010E8600478008002780179
:10008800E81392A4E5106004780080027801E81370
:1000980092A2D2A31136C2A3E5715408F8630008EE
:1000A800E86004780080027801E81392A7E57154AB
:1000B80004F8630004E86004780080027801E8131B
:1000C80092A6E5715402F8630002E86004780080A3
:1000D800027801E81392A5E5715401F8630001E87C
:1000E8006004780080027801E81392A4E5106004A7
:1000F800780080027801E81392A2D2A31136C2A335
:0B010800E51060041126800211302277
:10011300756C01756D00756E80756F00E56E456FCA
:10012300604E1136113611361136C2B711361136FB
:10013300E56B556EF8E4556FF9E8496004D2B68073
:1001430002C2B611361136D2B7C3E51192E0F511EA
:1001530020B709E51130E002800280F47801E56FF1
:10016300088007C313C56E13C56ED8F7F56F80AC4F
:10017300756C00756D0011361136C2B71136113624
:10018300D2B61136113611361136D2B7C3E51192F4
:10019300E0F51120B709E51130E002800280F47523
:1001A3006C00756D001136113630B606436C014391
:1001B3006D001136113611361136113611361136DE
:1001C30011361136113611361136113611361136F4
:0B01D3001136C2B7C2B6A86CA96D229D
:1001DE00C2B611361136D2B7C3E51192E0F5112031
:1001EE00B709E51130E002800280F41136113611A4
:1001FE003611361136113611361136D2B611361178
:02020E00362296
:0C021000751000856B711138751001220B
:10021C00D2B611361136D2B711361136C2B61136E6
:05022C001136C2B722EB
:10023100756D00756E00756F80757000E56F4570A6
:10024100604411361136D2B611361136D2B7C3E534
:100251001192E0F51120B709E51130E0028002802A
:10026100F430B608E56F426DE570426E1136113615
:10027100C2B77801E570088007C313C56F13C56F56
:10028100D8F7F57080B6D2B611361136E56B456CEC
:100291006002C2B611361136D2B7C3E51192E0F54C
:1002A1001120B709E51130E002800280F411361106
:0E02B10036C2B711361136C2B6A86DA96E223C
:1002BF00D2B6D2B7C3E51192E0F51120B709E51117
:0802CF0030E002800280F422FD
:1002D700803C75F008758200E828F8E933F9CA33DD
:1002E700CACB33CBC58233C5829CEA9DEB9EE582A0
:1002F7009F400CF582E99CF9EA9DFAEB9EFB08D535
:10030700F0D6E4C9FCE4CAFDE4CBFEAF8222EF607D
:100317000280BFEE6002805BED6002802DEB8CF007
:1003270084C8C9CAFBE5F0CCFE7F18E828F8E93392
:10033700F9EA33FAEB33FBEC33FC10D7039E4004A6
:10034700EC9EFC08DFE5E4FEFD227F18E828F8E9CB
:1003570033F9EA33FAEB33FBCE33CE10D7059CEEF5
:100367009D4007EB9CFBEE9DFE08DFE0E4CEFDE43D
:10037700CBFC2275F010E828F8E933F9EA33FACB19
:1003870033CBCF33CF10D7079CEB9DEF9E400AEAC4
:100397009CFAEB9DFBEF9EFF08D5F0DAE4CAFCE47C
:0603A700CBFDE4CFFE22B5
:1003AD00756800511C756BB83113756800C3E5682D
:1003BD009567500CA866866B31130566056880ED50
:0303CD0031DE22FC
:1003D000756600756600C3E5669408500B740825C1
:0B03E00066F87600056680EE51BF2233
:1003EB00756800511C756BB93113756800C3E568EE
:1003FB009567501BE5662568F885006A756B017576
:10040B006C005131850069A86AA669056880DE31E8
:02041B00DE22DF
:10041D008019756680802E7566C0802975669480FA
:10042D00247566D4801F756680801AE56664016048
:10043D00E1E566640260E0E566640360DFE566643D
:10044D000460DE80E1C3E5679401F8E56628F88570
:10045D000066751001850071113875100085687181
:06046D0011387510012298
:10047300C2D5EF30E70FB2D5E4C39CFCE49DFDE4A5
:100483009EFEE49FFFEB30E717B2D51204A91202D8
:10049300D7E4C39CFCE49DFDE49EFEE49FFF800340
:1004A3001202D730D50DE4C398F8E499F9E49AFA27
:0504B300E49BFB222286
:1004B800C2A3C2A2112611261126C2A7C2A6C2A58E
:1004C800C2A4D2A5D2A4D2A31136C2A31126D2A304
:1004D8001136C2A31126D2A31136C2A31126D2A562
:1004E800C2A4D2A31136C2A31126C2A7C2A6C2A50E
:1004F800D2A5C2A4D2A31136C2A3C2A5D2A7D2A3A1
:100508001136C2A31126C2A7D2A4D2A31136C2A300
:10051800C2A4D2A31136C2A31126C2A4D2A31136F3
:10052800C2A3D2A4D2A31136C2A31126C2A4D2A3B5
:100538001136C2A3D2A7D2A6D2A5D2A4D2A311366D
:08054800C2A311267510012267
:100550007566007571401138756600C3E5669408CC
:10056000501BE5662440F9E4340CFA8501828502CB
:1005700083E493F885006B5110056680DE75710287
:030580001138220D
:08058300E493F608A3D9F92264
:10058B0071D091B8757101113875710C1138B1506A
:01059B00223D
:10059C007562FF7563FF756400A8611561E86054AE
:1005AC00A860E66262E462630560756400C3E5649A
:1005BC009408503E74015562F974005563FAE94A87
:1005CC00601A7801E563088007C313C56213C5621E
:1005DC00D8F7F5636362016363A080127801E56369
:1005EC00088007C313C56213C562D8F7F5630564A9
:0905FC0080BB80A5A862A963225E
:10060500C3E5629400E5639400E5649400740064B6
:1006150080F8E565648098400B856166856067753F
:100625006820911DC3E5629400E5639400E5649438
:100635000074006480F8E5656480985024856166DF
:1006450085606775682D911DC374009562F56274A8
:10065500009563F56374009564F56474009565F51C
:1006650065D3E56294E7E5639403E564940074005B
:100675006480F8E5656480985002E13AD3E56294B8
:100685000FE5639427E564940074006480F8E565DC
:100695006480984002E13A7CE87D037E007507009E
:1006A500A862A963AA64AB659173743028F56B5190
:1006B500107C647D007E00750700A862A963AA64AA
:1006C500AB6591737C0A7D007E007507009173A868
:1006D50004A905AA06AB07743028F56B51107C0AEE
:1006E5007D007E00750700A862A963AA64AB6591C9
:1006F500737C0A7D007E007507009173A804A90527
:10070500AA06AB07743028F56B5110756B2E511086
:100715007C0A7D007E00750700A862A963AA64AB08
:10072500659173A804A905AA06AB07743028F56B73
:1007350051100208DCD3E5629463E5639400E56437
:10074500940074006480F8E5656480985002E1E6E1
:10075500D3E56294E7E5639403E56494007400646B
:1007650080F8E5656480984002E1E67C647D007E62
:1007750000750700A862A963AA64AB65917374301C
:1007850028F56B51107C0A7D007E00750700A86274
:10079500A963AA64AB6591737C0A7D007E00750729
:1007A500009173A804A905AA06AB07743028F56B58
:1007B5005110756B2E51107C0A7D007E0075070067
:1007C500A862A963AA64AB659173A804A905AA06E2
:1007D500AB07743028F56B5110756B20511002086A
:1007E500DCD3E5629409E5639400E5649400740044
:1007F5006480F8E5656480985002016ED3E56294E3
:1008050063E5639400E564940074006480F8E5652D
:1008150064809850547C0A7D007E00750700A862AC
:10082500A963AA64AB65120473743028F56B1202D0
:1008350010756B2E1202107C0A7D007E0075070074
:10084500A862A963AA64AB65120473A804A905AAE2
:1008550006AB07743028F56B120210756B20120277
:1008650010756B2012021001DCD3E5629400E5637C
:100875009400E564940074006480F8E565648098EC
:100885004055D3E5629409E5639400E564940074EA
:10089500006480F8E565648098503C756B30120201
:1008A50010756B2E1202107C0A7D007E0075070004
:1008B500A862A963AA64AB65120473A804A905AA72
:1008C50006AB07743028F56B120210756B20120207
:0808D50010756B2012021022C5
:1008DD007904E561098002C313D9FCF82430F8E4EA
:1008ED00340CF9850082850183E493FAA862A6028F
:1008FD00E5622401F8E561540FF92430FAE4340C73
:10090D00FB850282850383E493F9A601E562240247
:10091D00F87A04E5600A8002C313DAFCF92430FA90
:10092D00E4340CFB850282850383E493F9A601E58B
:10093D00622403F8E560540FF92430FAE4340CFB1B
:10094D00850282850383E493F9A601E5622404F808
:03095D00760022FF
:10096000A90F78007A00E50E48FAE449FBA860A6D2
:050970000208A60322AD
:100975008019756080802E7560C0802975609480AF
:10098500247560D4801F756080801AE560640160FD
:10099500E1E560640260E0E560640360DFE56064F2
:1009A5000460DE80E1C3E5619401F8E56028F8851F
:1009B5000060850071120038751000756300E562EE
:1009C5002563F8E6600EE5622563F8866B12021072
:0809D500056380EA75100122A0
:1009DD007563007566007567001203AD7E037FDDDC
:1009ED00DFFEDEFC0075080385600985610A75660A
:1009FD00087567031203AD7E037FAEDFFEDEFC00DC
:100A0D00756300C3E5639562500B74082563F87632
:0F0A1D0000056380EE7566088562671203EB22A1
:100A2C00A90A78007A00E50B48FAE449FBA860A60D
:100A3C000208A603A90C78007A00E50D48FAE449EF
:090A4C00FBA861A60208A6032222
:100A550075817275822875830C7852790812058321
:100A650012058B7560017561027582E875830B78D7
:100A750012791312058375621231757560027561FD
:100A85000175255275262E75274875282F75292538
:100A9500752A3A752B007562253175756003756188
:100AA50001752C54752D2E752E2F752F20753043FD
:100AB50075313A75320075622C3175756004756152
:100AC500017533437534527535437536317537368F
:100AD50075383A7539007562333175756603756712
:100AE5000475680012041D7560007561047562085F
:100AF50031DD756054756152512C756058316075E2
:100B0500600875610612059C850056850157E558F4
:100B1500687003E55969705A7560087561028554F6
:100B250062855563E4F564E4F565120605756008AC
:100B3500756103855262855363E55333E495E0F5AA
:100B450064F56512060585566085576175625A110B
:100B5500DD756004756108753A30753B78753C0044
:100B650075623A317575600475610A75625A317539
:100B75008060756002756107753D20753E2D753F76
:100B85002D75402E75412D75422075430075623DCA
:100B9500317575600375610775442075452D75467A
:100BA5002D75472E75482D754920754A0075624487
:100BB5003175756004756108754B45754C52754DF9
:100BC50052754E4F754F5275502175510075624BD8
:100BD50031757D1D7E047FDDDFFEDEFCDDFA004123
:030BE500EC80FEA3
:100BE800414D323332302053656E736F7220446149
:030BF80074610025
:070BFB00522E482F253A009D
:070C0200542E2F20433A009D
:070C090043524331363A006B
:030C100030780039
:070C1300202D2D2E2D2000E5
:070C1A00202D2D2E2D2000DE
:070C21004552524F52210021
:020C28000000CA
:020C2A000000C8
:020C2C000000C6
:020C2E000000C4
:100C30003031323334353637383941424344454612
:080C400000060909060000008E
:00000001FF
