:10000000020F7E020000000000000002000000005D
:100010000000000200000000000000020EB000001E
:0E0020000000000200000000000000020000CE
:09002E007E0B7FB2DFFEDEFC2236
:020037000022A5
:060039007F18DFFE00222B
:10003F00E5235480F8630080E8600478008002783C
:10004F0001E81392A7E5235440F8630040E86004E9
:10005F00780080027801E81392A6E5235420F86314
:10006F000020E86004780080027801E81392A5E58B
:10007F00235410F8630010E86004780080027801C0
:10008F00E81392A4E5096004780080027801E81370
:10009F0092A2D2A31137C2A3E5235408F863000834
:1000AF00E86004780080027801E81392A7E52354F2
:1000BF0004F8630004E86004780080027801E81314
:1000CF0092A6E5235402F8630002E86004780080EA
:1000DF00027801E81392A5E5235401F8630001E8C3
:1000EF006004780080027801E81392A4E5096004A7
:1000FF00780080027801E81392A2D2A31137C2A32D
:0B010F00E5096004112E800211392266
:10011A00BD000BB90029E88CF084F8ACF022E4CDDC
:10012A00FF75F008E828F8E933F9ED33FDE99CEDAD
:10013A009F4005FDE99CF908D5F0E9E4C9FC22ECE9
:10014A00FFF5F0E98420D21CF9ACF075F008E82834
:10015A00F8EC33FC40079F5006D5F0F222C39FFC0F
:05016A0008D5F0EA22B7
:10016F0015221522D3E522940040061522000080A7
:09017F00F3000000000000002262
:10018800803C75F008758200E828F8E933F9CA332D
:10019800CACB33CBC58233C5829CEA9DEB9EE582F0
:1001A8009F400CF582E99CF9EA9DFAEB9EFB08D585
:1001B800F0D6E4C9FCE4CAFDE4CBFEAF8222EF60CE
:1001C8000280BFEE6002805BED6002802DEB8CF058
:1001D80084C8C9CAFBE5F0CCFE7F18E828F8E933E3
:1001E800F9EA33FAEB33FBEC33FC10D7039E4004F7
:1001F800EC9EFC08DFE5E4FEFD227F18E828F8E91C
:1002080033F9EA33FAEB33FBCE33CE10D7059CEE45
:100218009D4007EB9CFBEE9DFE08DFE0E4CEFDE48D
:10022800CBFC2275F010E828F8E933F9EA33FACB69
:1002380033CBCF33CF10D7079CEB9DEF9E400AEA14
:100248009CFAEB9DFBEF9EFF08D5F0DAE4CAFCE4CC
:06025800CBFDE4CFFE2205
:0C025E0078E0792EE933E495E0FAFB2209
:10026A00EF88F0A4CB8CF0A42BFBEE89F0A42BFB37
:10027A008DF0EAA42BFBED89F0A4CAAFF08CF0A4B0
:10028A002ACB3F25F0FAEE88F0A42BCA35F0FBEC16
:10029A0089F0A4F9AEF0EC88F0A4C8C5F029CA3EEA
:0F02AA00F9E43BFBEDA42AC935F0FAE43BFB2253
:0C02B900750900852223113F7509012200
:1002C5008019751280802E7512C080297512948050
:1002D500247512D4801F751280801AE5126401609E
:1002E500E1E512640260E0E512640360DFE5126493
:1002F5000460DE80E1C3E5139401F8E51228F88572
:100305000012850023113F750900751500E51425B8
:1003150015F8E6600DE5142515F8862251B9051581
:0603250080EB75090122C6
:10032B00515E7CE87D037E00750700516A85001ADB
:10033B0085011B85021C85031DAC12AD13E4FEE485
:10034B00F507318885001A85011B85021C85031D65
:10035B007C187D007E0075070031888500168501AD
:10036B0017515EAC14AD15E4FEE4F507516A850038
:10037B001E85011F850220850321A816A917E4FA03
:10038B00E4FB7C187D007E00750700516AAC00AD64
:10039B0001AE02AF03A81EA91FAA20AB213188858D
:1003AB00001A85011B85021C85031D7C0A7D00A894
:1003BB0016A917311A850016850117D3E51A940073
:1003CB00E51B9400E51C9400E51D9400500281543C
:1003DB00D294E5176024751800751900A917C3E5A9
:1003EB001899E5199A5013752200316F740125186D
:1003FB00F51874003519F51980E2851622316FC294
:10040B0094E5176024751800751900A917C3E51832
:10041B0099E5199A5013752200316F74012518F55F
:10042B001874003519F51980E2851622316FC3E572
:10043B001A9401F51AE51B9400F51BE51C9400F5C5
:0C044B001CE51D9400F51D61C6C2942242
:10045700E88CF0C2D530F707B2D563F0FF05F0306E
:10046700E70CB2D5F4048463F0FF05F08001843013
:08047700D502F404F8AAF022FA
:10047F008019751280802E7512C080297512948094
:10048F00247512D4801F751280801AE512640160E2
:10049F00E1E512640260E0E512640360DFE51264D7
:1004AF000460DE80E1C3E5139401F8E51228F885B6
:1004BF000012750901850023113F7509008514236A
:0604CF00113F7509012236
:1004D500751100801475110180277511058022752D
:1004E500110A801D75110E8018E510640160E6E59E
:1004F50010640260E5E510640360E4E510640460DF
:10050500E3020836751201851113751400917F7584
:100515001201E5112401F513751403917F7512017C
:10052500E5112402F513751402917F7512028511E8
:1005350013751404917F751202E5112401F51375E5
:100545001405917F751202E5112402F51375140641
:10055500917F02088E751201851113751403917F21
:10056500751201E5112401F513751402917F7512B9
:1005750001E5112402F51375143551C5751202856F
:100585001113751405917F751202E5112401F513F8
:10059500751407917F751202E5112402F513751480
:1005A50005917F02088E751201851113751401914D
:1005B5007F751201E5112401F513751401917F75FD
:1005C5001201E5112402F513751402917F751202CB
:1005D500851113751404917F751202E5112401F537
:1005E50013751405917F751202E5112402F5137533
:1005F5001405917F02088E7512018511137514017A
:10060500917F751201E5112401F513751401917F90
:10061500751201E5112402F513751402917F751207
:1006250002851113751405917F751202E5112401D8
:10063500F513751405917F751202E5112402F51362
:10064500751406917F02088E7512018511137514B4
:1006550004917F751201E5112401F51375140591B7
:100665007F751201E5112402F513751407917F7545
:10067500120285111375143051C5751202E5112446
:1006850001F51375143351C5751202E5112402F5F0
:1006950013751407917F02088E7512018511137564
:1006A5001404917F751201E5112401F513751401E8
:1006B500917F751201E5112402F513751401917FDF
:1006C500751202851113751405917F751202E511D6
:1006D5002401F513751405917F751202E5112402A5
:1006E500F513751406917F02088E75120185111395
:1006F500751400917F751201E5112401F513751428
:1007050001917F751201E5112402F513751401910C
:100715007F751202851113751404917F751202E518
:10072500112401F513751405917F751202E5112445
:1007350002F513751406917F02088E751201851155
:1007450013751403917F751201E5112401F51375D5
:100755001403917F751201E5112402F51375140236
:10076500917F75120285111375146451C5751202B6
:10077500E5112401F51375146651C5751202E511CD
:100785002402F513751407917F02088E75120185F1
:100795001113751400917F751201E5112401F513EC
:1007A500751401917F751201E5112402F513751475
:1007B50002917F751202851113751404917F7512CC
:1007C50002E5112401F513751405917F751202E5F3
:1007D500112402F513751406917F02088E75120116
:1007E500851113751400917F751201E5112401F52A
:1007F50013751401917F751201E5112402F5137526
:10080500140212047F7512028511137514781202F1
:10081500C5751202E5112401F5137514621202C59E
:10082500751202E5112402F51375140712047F8071
:1008350058E50F7003020509E50F64017003020511
:100845005AE50F640270030205ABE50F64037003FC
:100855000205FCE50F6404700302064DE50F64050F
:10086500700302069EE50F640670030206EFE50FAE
:1008750064077003020740E50F64087003020791DF
:0A088500E50F640970030207E22288
:10088F007C0A7D00A811E51133E495E0F9120457B5
:10089F00851012850F13743028F51412047F7C0A0B
:1008AF007D00A811E51133E495E0F9120457A80271
:1008BF00851012050F850F13743028F51412047F5D
:0108CF002206
:1008D00020901275122875130A75142D75150012C3
:1008E000032B7801222091127512B875130B751421
:1008F0002D75150012032B78022220921275129882
:1009000075130875142D75150012032B78032278C2
:020910000022C3
:10091200750A00750B00750B00C3E50B94084002C5
:10092200415A7903E50B098002C333D9FCF87440BC
:1009320028F52312003F750A00C3E50A9408400215
:1009420041564116E50A240AF9E43410FA85018277
:10095200850283E493F88500221202B94152E50A26
:100962002402F9E43410FA850182850283E493F8C3
:100972008500221202B94152E50A241AF9E4341020
:10098200FA850182850283E493F88500221202B976
:100992004152E50A2412F9E43410FA8501828502F3
:1009A20083E493F88500221202B94152E50A24FA3F
:1009B200F9E4340FFA850182850283E493F8850015
:1009C200221202B94152E50A24E2F9E4340FFA850F
:1009D2000182850283E493F88500221202B9415212
:1009E200E50A24EAF9E4340FFA850182850283E4F8
:1009F20093F88500221202B98056E50A24F2F9E43E
:100A0200340FFA850182850283E493F8850022126D
:100A120002B9803CE50B70022146E50B64017002CD
:100A22002160E50B64027002217AE50B6403700217
:100A32002194E50B6404700221AEE50B640570029B
:100A420021C8E50B6406700221E2E50B640760AA87
:090A5200050A213B050B211B22C2
:100A5B00850A0F850B10850C11118F11D0E86402DC
:100A6B007002050C11D0E864037002150CD3E50D70
:100A7B006480F8E50C6480984003850E0CC3E50E8A
:100A8B006480F8E50C6480985003850D0C11D0E858
:100A9B00640170147E127F81DFFEDEFC11D0E864EE
:0B0AAB0001700280F7A80C2280A62238
:100AB600C2A3C2A212002E12002E12002EC2A7C27C
:100AC600A6C2A5C2A4D2A5D2A4D2A3120037C2A39D
:100AD60012002ED2A3120037C2A312002ED2A312E6
:100AE6000037C2A312002ED2A5C2A4D2A312003789
:100AF600C2A312002EC2A7C2A6C2A5D2A5C2A4D264
:100B0600A3120037C2A3C2A5D2A7D2A3120037C22E
:100B1600A312002EC2A7D2A4D2A3120037C2A3C228
:100B2600A4D2A3120037C2A312002EC2A4D2A312CB
:100B36000037C2A3D2A4D2A3120037C2A312002E3A
:100B4600C2A4D2A3120037C2A3D2A7D2A6D2A5D2DC
:0F0B5600A4D2A3120037C2A312002E75090122E8
:030B6500C2942215
:100B6800D3E5B092E0F5B0D3E50892E3F508D3E514
:100B78000892E1F508C3E50892E2F508C2AFC2ABF6
:030B8800C28E22F8
:100B8B00E50830E40B7544007541007532008009AF
:100B9B00854944854C41856132754A00754B00D2BD
:100BAB00AFD2ABD28E758DFC758B16D3E50892E266
:100BBB00F508D3E50892E3F508C3E50892E1F508DB
:0F0BCB00D3E5B092E0F5B0D3E5B092E1F5B022FA
:100BDA00750A00750A00C3E50A9409502BE5B0A20C
:100BEA00E1B3E5B092E1F5B07512587513027514C8
:100BFA002D75150012032B7D057E907F49DFFEDEE1
:100C0A00FCDDFA00050A80CEC3E5B092E1F5B02218
:100C1A00750C00750D0075F00AE50A84F885000C5C
:100C2A0075F00AE50A84E5F0F885000D850C0F7564
:100C3A0010031204D5850D0F7510041204D575F032
:100C4A000AE50B84F885000C75F00AE50B84E5F0DB
:100C5A00F885000D850C0F7510011204D5850D0F4E
:100C6A007510021204D5E50830E31A7512017513DE
:100C7A00087514471202C575120275130875143FD8
:100C8A001202C580187512017513087514451202EF
:0E0C9A00C57512027513087514421202C522A8
:100CA80075900F75A0FF7168C3E58992E6F589C351
:100CB800E58992E5F589D3E58992E4F589C3E58963
:100CC80092E7F589758DFC758B16D3E50892E4F5E6
:100CD80008D3E50892E3F508C3E50892E0F5085162
:100CE800B675230112003F75230C12003F71653160
:100CF80012C3E5B092E0F5B07D047E0B7F2FDFFED6
:0D0D0800DEFCDDFA00D3E5B092E0F5B0228C
:080D1500E493F608A3D9F922CA
:100D1D00E532700A85440A85410B911A8008854198
:100D2D000A85320B911AE50830E00971DAC3E5083E
:050D3D0092E0F5082220
:100D4200E50830E239E50830E41DE54465497015EF
:100D5200E541654C700FE532656170097168D3E554
:100D62000892E0F5088015E5447011E541700DE543
:100D72003270097168D3E50892E0F5088002716863
:010D8200224E
:100D830011D0E864016002C1AF7E4E7FD1DFFEDE89
:100D9300FC11D0E864016002C1AF716875230112D0
:100DA300003F7512017513047514561202C57512AE
:100DB3000275130575144D1202C57D027E867F16DA
:100DC300DFFEDEFCDDFA00750F057510028561118B
:100DD300118F750A05750B0285610C750D17750E5C
:100DE30000515B8500617D027E867F16DFFEDEFC9F
:100DF300DDFA00750F08751002854C11118F750A05
:100E030008750B02854C0C750D3B750E00515B8507
:100E1300004C7D027E867F16DFFEDEFCDDFA007568
:100E23000F0B751002854911118F750A0B750B0293
:100E330085490C750D3B750E00515B8500497D029C
:100E43007E867F16DFFEDEFCDDFA007523011200CD
:100E53003F7512017513017514681202C5751202EC
:100E63007513057514371202C5750F0A751002E55F
:100E730008A2E4E433F511118F750A0A750B02E534
:100E830008A2E4E433F50C750D01750E00515BE81F
:100E930013E50892E4F5087D027E867F16DFFEDE09
:0D0EA300FCDDFA00718B75230112003F2267
:100EB000C000C0D0C0E0C0F0C082C083E50830E10F
:100EC00002E171758DFC758B167401254AF54A7423
:100ED00000354BF54BD3E54A94E7E54B94035002BC
:100EE000E171E5B0A2E0B3E5B092E0F5B0E508A2AB
:100EF000E3B3E50892E3F508754A00754B00E50891
:100F000030E4380544D3743B6480F8E54464809849
:100F100040277544000541D3743B6480F8E5416483
:100F2000809840157541000532D374176480F8E548
:100F300032648098400375320080361544C37400D3
:100F40006480F8E544648098502775443B1541C39C
:100F500074006480F8E541648098501575413B1534
:100F600032C374006480F8E53264809850037532AF
:0E0F700000D083D082D0F0D0E0D0D0D00032BC
:100F7E0075818012102291A8B183B142B11D7EC33A
:0A0F8E007F8CDFFEDEFC80F080FEA9
:0E1022007830794A75829875830F120D152269
:020F9800200037
:010F9A000056
:020F9B00200034
:020F9D00200032
:080F9F0054797065202D2D002E
:020FA7002E001A
:010FA9000047
:020FAA00200025
:010FAC000044
:020FAD00200022
:020FAF002E0012
:010FB100003F
:020FB20000003D
:010FB400003C
:090FB5002D2D3A2D2D3A2D2D00B1
:0B0FBE003C5365742054696D653E00D3
:010FC9000027
:020FCA00200005
:020FCC00200003
:020FCE00200001
:100FD0003031203D2055202F203030203D2044004E
:020FE0002000EF
:080FE20000000000001F1F00C9
:080FEA001F1F1F1F1F1E1C002A
:080FF2001F1F1F1F1F1F1F001E
:080FFA001F1F1F1F1F0F07003E
:081002001F1F1F00001F1F004B
:08100A00070F1F1F1F1F1F002D
:081012001F1F00000000000098
:08101A001C1E1F1F1F1F1F00F9
:00000001FF
