:100000000203CC020000000000000002000000001B
:1000100000000002000000000000000200000000DC
:06002000000000020000D8
:050026007F29DFFE222E
:0A002B007E127FD4DFFEDEFC00220F
:03003500000022A6
:10003800E51D5480F8630080E86004780080027849
:1000480001E81392A7E51D5440F8630040E86004F6
:10005800780080027801E81392A6E51D5420F86321
:100068000020E86004780080027801E81392A5E592
:100078001D5410F8630010E86004780080027801CD
:10008800E81392A4E50D6004780080027801E81373
:1000980092A2D2A31135C2A3E51D5408F863000843
:1000A800E86004780080027801E81392A7E51D54FF
:1000B80004F8630004E86004780080027801E8131B
:1000C80092A6E51D5402F8630002E86004780080F7
:1000D800027801E81392A5E51D5401F8630001E8D0
:1000E8006004780080027801E81392A4E50D6004AA
:1000F800780080027801E81392A2D2A31135C2A336
:0B010800E50D6004112B80021126227F
:0C011300750D00851C1D1138750D0122B2
:10011F00751A00751D401138751A00C3E51A940839
:10012F00501BE51A24C2F9E43404FA8501828502D2
:10013F0083E493F885001C3113051A80DE751D02C8
:03014F0011382242
:10015200C2A3C2A2112B112B112BC2A7C2A6C2A5E8
:10016200C2A4D2A5D2A4D2A31135C2A3112BD2A369
:100172001135C2A3112BD2A31135C2A3112BD2A5C3
:10018200C2A4D2A31135C2A3112BC2A7C2A6C2A573
:10019200D2A5C2A4D2A31135C2A3C2A5D2A7D2A30B
:1001A2001135C2A3112BC2A7D2A4D2A31135C2A367
:1001B200C2A4D2A31135C2A3112BC2A4D2A311355A
:1001C200C2A3D2A4D2A31135C2A3112BC2A4D2A31B
:1001D2001135C2A3D2A7D2A6D2A5D2A4D2A31135D9
:0801E200C2A3112B750D0122CF
:1001EA00751A00751B00751A00C3E51A9408502683
:1001FA007801E51B088002C333D8FCF51B20900266
:10020A0080FB7F18DFFE00309003431B0130900211
:09021A0080FB051A80D3A81B2209
:100223008019751580802E7515C0802975159480E9
:10023300247515D4801F751580801AE51564016037
:10024300E1E515640260E0E515640360DFE515642C
:100253000460DE80E1C3E5169401F8E51528F8850E
:10026300001585001D1138750D00751800E517255B
:1002730018F8E6600DE5172518F8861C31130518E4
:0602830080EB750D012265
:100289007580FF7590FE75A0FF75B0FF3152751D21
:0B029900011138751D0C1138311F22B7
:0802A400E493F608A3D9F92246
:1002AC00751500751600D290C2907E3B7F5CDFFE08
:1002BC00DEFCD2907F15DFFEA290E51792E0F517D9
:1002CC00E51730E0037801227F42DFFEA290E517AC
:1002DC0092E0F517E51720E0037802227F42DFFE5B
:1002EC00751500D3E5159404501574082515F8857B
:1002FC00001931EA850018A819A618051580E4D252
:10030C0090751500C3E5159404500E74082515F866
:10031C00E51626F516051580EBE516650C600378D9
:05032C0003227800220D
:10033100751700C3E5179403500BE5162517F876DA
:1003410020051780EEE5162517F876001517E51636
:100351002517F875F00AE51584E5F0F92430F9A6BA
:100361000175F00AE51584F9850115E9700280042B
:05037100151780DA22DF
:100376008019751580802E7515C080297515948095
:10038600247515D4801F751580801AE515640160E3
:10039600E1E515640260E0E515640360DFE51564D8
:1003A6000460DE80E1C3E5169401F8E51528F885BA
:1003B6000015750D0185001D1138750D0085171D79
:0603C6001138750D012243
:1003CC007581611204CA750E00518951AC85000EFD
:1003DC008166751D0111387515017516017517505B
:1003EC0051238180751D0111387515017516017524
:1003FC00173A51238180751D011138751501751639
:10040C000475174A51237515027516047517325168
:10041C002375150175160D75173851237515027551
:10042C00160C751700717675150275160D7517304B
:10043C00512385081575160F71317515017516093F
:10044C0075170F5123850A1575160F713175150225
:10045C0075160975170F5123801AE50E6401700289
:10046C0061DEE50E6402700261DEE50E640370026B
:10047C0061F081027D087E9A7F7CDFFEDEFCDDFA76
:05048C000061D780FEB5
:0E04CA00783079317582917583041202A42274
:02049100430026
:06049300546D703A2000D8
:0204990025003C
:10049B00436865636B73756D204572726F722100D3
:0604AB00522E483A200029
:1004B1004E6F2053656E736F7220466F756E6421A7
:0104C100003A
:0804C20007050700000000001F
:00000001FF
