:1000000002080002000000000000000200000000E2
:1000100000000002000000000000000200000000DC
:06002000000000020000D8
:050026007F29DFFE222E
:0A002B007E127FD4DFFEDEFC00220F
:03003500000022A6
:10003800EF88F0A4CB8CF0A42BFBEE89F0A42BFB6B
:100048008DF0EAA42BFBED89F0A4CAAFF08CF0A4E4
:100058002ACB3F25F0FAEE88F0A42BCA35F0FBEC4A
:1000680089F0A4F9AEF0EC88F0A4C8C5F029CA3E1E
:0F007800F9E43BFBEDA42AC935F0FAE43BFB2287
:0C0087007820794EE933E495E0FAFB2282
:10009300E5235480F8630080E860047800800278E8
:1000A30001E81392A7E5235440F8630040E8600495
:1000B300780080027801E81392A6E5235420F863C0
:1000C3000020E86004780080027801E81392A5E537
:1000D300235410F8630010E860047800800278016C
:1000E300E81392A4E5096004780080027801E8131C
:1000F30092A2D2A31135C2A3E5235408F8630008E2
:10010300E86004780080027801E81392A7E523549D
:1001130004F8630004E86004780080027801E813BF
:1001230092A6E5235402F8630002E8600478008095
:10013300027801E81392A5E5235401F8630001E86E
:100143006004780080027801E81392A4E509600452
:10015300780080027801E81392A2D2A31135C2A3DA
:0B016300E5096004112B800211262228
:10016E0015231523D3E523940040061523000080A4
:09017E00F3000000000000002263
:10018700BD000BB90029E88CF084F8ACF022E4CD6F
:10019700FF75F008E828F8E933F9ED33FDE99CED40
:1001A7009F4005FDE99CF908D5F0E9E4C9FC22EC7C
:1001B700FFF5F0E98420D21CF9ACF075F008E828C7
:1001C700F8EC33FC40079F5006D5F0F222C39FFCA2
:0501D70008D5F0EA224A
:1001DC00803C75F008758200E828F8E933F9CA33D9
:1001EC00CACB33CBC58233C5829CEA9DEB9EE5829C
:1001FC009F400CF582E99CF9EA9DFAEB9EFB08D531
:10020C00F0D6E4C9FCE4CAFDE4CBFEAF8222EF6079
:10021C000280BFEE6002805BED6002802DEB8CF003
:10022C0084C8C9CAFBE5F0CCFE7F18E828F8E9338E
:10023C00F9EA33FAEB33FBEC33FC10D7039E4004A2
:10024C00EC9EFC08DFE5E4FEFD227F18E828F8E9C7
:10025C0033F9EA33FAEB33FBCE33CE10D7059CEEF1
:10026C009D4007EB9CFBEE9DFE08DFE0E4CEFDE439
:10027C00CBFC2275F010E828F8E933F9EA33FACB15
:10028C0033CBCF33CF10D7079CEB9DEF9E400AEAC0
:10029C009CFAEB9DFBEF9EFF08D5F0DAE4CAFCE478
:0602AC00CBFDE4CFFE22B1
:0C02B200750900851323119375090122C2
:1002BE008019751380802E7513C080297513948054
:1002CE00247513D4801F751380801AE513640160A2
:1002DE00E1E513640260E0E513640360DFE5136497
:1002EE000460DE80E1C3E5149401F8E51328F88577
:1002FE0000137509018500231193750900851523D7
:06030E00119375090122A4
:1003140011877CE87D037E00750700113885001B7A
:1003240085011C85021D85031EAC13AD14E4FEE497
:10033400F50731DC85001B85011C85021D85031E24
:100344007C187D007E0075070031DC85001785016F
:10035400181187AC15AD16E4FEE4F50711388500D5
:100364001F850120850221850322A817A918E4FA14
:10037400E4FB7C187D007E007507001138AC00ADED
:1003840001AE02AF03A81FA920AA21AB2231DC854C
:10039400001B85011C85021D85031E7C0A7D00A8A7
:1003A40017A9183187850017850118D3E51B940018
:1003B400E51C9400E51D9400E51E94005002813D67
:1003C400D297E5186024751900751A00A918C3E5B9
:1003D4001999E51A9A5013752300316E7401251981
:1003E400F5197400351AF51A80E2851723316EC2A7
:1003F40097E5186024751900751A00A918C3E51942
:1004040099E51A9A5013752300316E74012519F574
:10041400197400351AF51A80E2851723316EC3E585
:100424001B9401F51BE51C9400F51CE51D9400F5D7
:0C0434001DE51E9400F51E61AFC297226A
:1004400075F064E51184F8851013850F1474302855
:10045000F51551BE75F00AE51184F875F00AE884C7
:10046000E5F0F8851013E50F2401F514743028F534
:100470001551BE75F00AE51184E5F0F8851013E515
:0D0480000F2402F514743028F51551BE222A
:10048D008019750F80802E750FC08029750F94808F
:10049D0024750FD4801F750F80801AE50F640160DD
:1004AD00E1E50F640260E0E50F640360DFE50F64D2
:1004BD000460DE80E1C3E5109401F8E50F28F885AE
:1004CD00000F8500231193750900751200E51125A4
:1004DD0012F8E6600DE5112512F8861351B20512DA
:0604ED0080EB75090122FD
:1004F3002090117513B875140B75152D75160071B1
:100503001478012220911175132875140A75152D7D
:1005130075160071147802222092117513607514F8
:0F0523000975152D7516007114780322780022C2
:10053200C2A3C2A2112B112B112BC2A7C2A6C2A504
:10054200C2A4D2A5D2A4D2A31135C2A3112BD2A385
:100552001135C2A3112BD2A31135C2A3112BD2A5DF
:10056200C2A4D2A31135C2A3112BC2A7C2A6C2A58F
:10057200D2A5C2A4D2A31135C2A3C2A5D2A7D2A327
:100582001135C2A3112BC2A7D2A4D2A31135C2A383
:10059200C2A4D2A31135C2A3112BC2A4D2A3113576
:1005A200C2A3D2A4D2A31135C2A3112BC2A4D2A337
:1005B2001135C2A3D2A7D2A6D2A5D2A4D2A31135F5
:0805C200C2A3112B75090122EF
:0305CA00C29722B3
:1005CD00C3E5B092E0F5B0C3E5B092E1F5B0750FBB
:0A05DD000275100D75113A918D2280
:1005E700850B0F850A10751153918D7D027E457F0E
:1005F7003DDFFEDEFCDDFA850A0F850B10850C1149
:1006070091407D027E457F3DDFFEDEFCDDFA91F302
:10061700E864027002050C91F3E864037002150C9C
:10062700D3E50C950D4003850E0CC3E50C950E50D4
:1006370003850D0C91F3E8640170197D027E247F18
:10064700D0DFFEDEFCDDFA0091F3E8640170028082
:07065700F7A80C22A1E72225
:10065E008058C3E5B092E0F5B0D3E5B092E1F5B0C5
:10066E00750F0275100D751130918D309302153F77
:10067E00E53F7007C3E50892E0F5088034D3E5B096
:10068E0092E0F5B0C3E5B092E1F5B0750F027510CA
:10069E000D751135918D309302053FE53F65647000
:1006AE0007C3E50892E0F5088007E50820E1A3807E
:0A06BE00CC7EC37F8CDFFEDEFC2241
:1006C800C3E50892E0F508C3E50892E1F5087590DE
:1006D8007F75A0FFB132752301119375230C119317
:0306E800B1CA2272
:0806EB00E493F608A3D9F922FB
:1006F300750F01751004751147918D750F027510F3
:1007030001751140918D750F08751002853F119188
:02071300402282
:10071500309002E1937D087E9A7F7CDFFEDEFCDD72
:10072500FA002090527D037E897F7DDFFEDEFCDDB1
:10073500FA20900280FBC3E50892E0F508B1CD757B
:1007450023011193750F01751003751157918D755F
:100755000A07750B0285640C750DFA750E01B1E774
:100765008500647D0C7E677F3BDFFEDEFCDDFA00E5
:1007750075230111938017E508A2E0B3E50892E01F
:0F078500F5087D027E457F3DDFFEDEFCDDFA22BA
:1007940020910AC3E50892E1F508753F0020920A0A
:1007A400D3E50892E1F50885643FE50830E004D11B
:0607B4005E8002B1CD22BF
:0E07EF00783079357582BA7583071206EB22D1
:100800007581651207EF1206C812071512079412B8
:0608100006F380F580FEF6
:0507BA00204657440039
:0507BF00205257440028
:0507C40053544F5000EA
:0107C900002F
:0707CA005475726E733A00D2
:0C07D100436F696C2057696E646572000C
:0407DD0020202000B8
:0D07E1004E6F2E206F66205475726E7300EF
:0107EE000A00
:00000001FF
