:1000000002009A020000000000000002003600001A
:1000100000000002000000000000000200000000DC
:0E0020000000000200000000000000020000CE
:08002E00E493F608A3D9F922BE
:10003600C000C0D0C0E0C0F0C082C083C2AF758C23
:10004600D8758AF074012530F53074003531F531F4
:10005600E53064F87004E531640270297530007586
:100066003100A291B392910532E532643C70167567
:1000760032000534E534643C700B75340005337585
:100086003318753300D2AFD083D082D0F0D0E0D011
:04009600D0D0003294
:10009A0075813512019175883075891075A8827538
:1000AA008CD8758AF0D292D293D29475B0003092DD
:1000BA0002216B7E627F45DFFEDEFCE53464FFF5DC
:1000CA00B030943375880075890075A800C291D242
:1000DA0090209321C2AFE53464FFF5B005347D0268
:1000EA007EE77F5DDFFEDEFCDDFA00D3E534943B7C
:1000FA00400375340080CA75B0FF7D047ECD7FBD94
:10010A00DFFEDEFCDDFA00E53364FFF5B030943340
:10011A0075880075890075A800C290D29120932134
:10012A00C2AFE53364FFF5B005337D027EE77F5D3C
:10013A00DFFEDEFCDDFA00D3E533941740037533A6
:10014A000080CA75B0FF7EC37F8CDFFEDEFCD290D2
:10015A00D29175883075891075A882758CD8758A80
:10016A00F075F002E53284E5F0F9700AC290E534E0
:10017A0064FFF5B08008D290E53364FFF5B001B8AA
:02018A0080FEF5
:0E0191007830790575828C75830112002E225C
:02018C00000071
:01018E000070
:01018F00006F
:01019000006E
:00000001FF
