:100000000200FE02000000000000000200000000EC
:1000100000000002000000000000000200000000DC
:0E0020000000000200000000000000020000CE
:10002E008040C3E5B092E4F5B0C3E5B092E5F5B01B
:10003E008046D3E5B092E4F5B0C3E5B092E5F5B0F5
:10004E008036C3E5B092E4F5B0D3E5B092E5F5B0F5
:10005E008026D3E5B092E4F5B0D3E5B092E5F5B0E5
:10006E008016E50C640160BAE50C640260C4E50C10
:09007E00640360CEE50C60DA2297
:10008700C3E5B092E7F5B0D3E5B092E3F5B0C3E5C9
:10009700B092E2F5B0759000850A0C112E850B9091
:0800A700D3E5B092E7F5B022A9
:0900AF00750A00750B92118722FD
:1000B800750900C3E5B092E7F5B0C3E5B092E3F582
:1000C800B0D3E5B092E2F5B07590FF85080C112E1B
:0D00D800859009D3E5B092E7F5B0A80922A4
:0800E500E493F608A3D9F92207
:1000ED007590FF75B0FF11AF7EC37F8CDFFEDEFC18
:0100FD0022E0
:1000FE0075810D11ED75080111B8750A03E864FFDD
:08010E00F50B118780EF80FE64
:00000001FF
