:1000000002030602044D0000000000020000000090
:1000100000000002000000000000000202BF00001B
:0E0020000000000200000000000000020000CE
:10002E00BD000BB90029E88CF084F8ACF022E4CDC9
:10003E00FF75F008E828F8E933F9ED33FDE99CED9A
:10004E009F4005FDE99CF908D5F0E9E4C9FC22ECD6
:10005E00FFF5F0E98420D21CF9ACF075F008E82821
:10006E00F8EC33FC40079F5006D5F0F222C39FFCFC
:05007E0008D5F0EA22A4
:10008300803C75F008758200E828F8E933F9CA3333
:10009300CACB33CBC58233C5829CEA9DEB9EE582F6
:1000A3009F400CF582E99CF9EA9DFAEB9EFB08D58B
:1000B300F0D6E4C9FCE4CAFDE4CBFEAF8222EF60D4
:1000C3000280BFEE6002805BED6002802DEB8CF05E
:1000D30084C8C9CAFBE5F0CCFE7F18E828F8E933E9
:1000E300F9EA33FAEB33FBEC33FC10D7039E4004FD
:1000F300EC9EFC08DFE5E4FEFD227F18E828F8E922
:1001030033F9EA33FAEB33FBCE33CE10D7059CEE4B
:100113009D4007EB9CFBEE9DFE08DFE0E4CEFDE493
:10012300CBFC2275F010E828F8E933F9EA33FACB6F
:1001330033CBCF33CF10D7079CEB9DEF9E400AEA1A
:100143009CFAEB9DFBEF9EFF08D5F0DAE4CAFCE4D2
:06015300CBFDE4CFFE220B
:100159007C647D00A810A911112E7C0A7D00112E46
:10016900A804A905748228FA740439FB85028285DA
:100179000383E493F88500357C0A7D00A810A91152
:10018900112E7C0A7D00112EA804A905748228FA73
:10019900740439FB850282850383E493F88500346E
:1001A9007C0A7D00A810A911112EA804A905748242
:1001B90028FA740439FB850282850383E493F88560
:1001C900003341407538D07537007536007532D81F
:1001D9007531D441567538D075370075360075328A
:1001E900867531D441567538F87C107D27A810A939
:1001F90011112E748228FA740439FB850282850351
:1002090083E493F88500377CE87D03A810A91111D0
:100219002E7C0A7D00112EA804A905748228FA747F
:100229000439FB850282850383E493F885003675DA
:10023900329C7531ED8016E512700221CDE512640C
:0E02490001700221DEE5126402700221EF2234
:10025700751300751400858C13E4F514A913780041
:10026700850013850114E58A4200E44201850013E5
:0402770085011422C7
:10027B00EC600FEBC313FBEA13FAE913F9E813F87D
:03028B00DCF12281
:08028E00E493F608A3D9F9225C
:100296007580FF7590FF75A0FF75B0FF758A0075B4
:1002A6008C00758B17758DFC75885175891975A825
:0202B60089229B
:0702B800758C00758A00221D
:1002BF00C000C001C0D0C0E0C0F0C082C083758B49
:1002CF0017758DFC7902E530098002C333D9FCF82C
:1002DF0074E328F5A074312530F886800530D3E516
:1002EF003094074003753000D083D082D0F0D0E037
:0702FF00D0D0D001D0003285
:1003060075818012049475828C7583047808790847
:10031600518E519651B8753900753A00D3E5B092B1
:10032600E1F5B07F04DFFE00C3E5B092E1F5B07EF3
:100336004E7FD1DFFEDEFCE539250CF50CE53A35BE
:100346000DF50DE4350EF50EE4350FF50FD3E50981
:10035600940F500281277C04A80CA90DAA0EAB0F9E
:10036600517B85000C85010D85020E85030F8500E6
:100376000A85010BD3E89400E994FA4002810080D3
:10038600657C3A7D007E00750700A80CA90DAA0EB3
:10039600AB0F118385000C85010D85020E85030FB9
:1003A6008500108501117512003159804B7C947DB2
:1003B600007E00750700A80CA90DAA0EAB0F1183CD
:1003C60085000C85010D85020E85030F85001085BD
:1003D60001117512013159801F850A10850B11759F
:1003E600120231598012E50870026187E50864013E
:1003F60060BBE508640260E1800B751000751100B2
:1004060075120231597D057E907F49DFFEDEFCDDE7
:10041600FA00750C00750D00750E00750F00750954
:10042600000509E5B020E31BE5B020E30280F905ED
:10043600087E4E7FD1DFFEDEFCD3E5089402400342
:07044600750800611A80FE39
:10044D00C000C001C0D0C0E0C0F0C082C083E5B024
:10045D0020E208515785003985013AD083D082D0EA
:0A046D00F0D0E0D0D0D001D0003272
:0E0494007830790B75827775830412028E2200
:010477000084
:0804780000000000000000007C
:0204800000007A
:0A0482003F065B4F666D7D077F6F3C
:01048C00006F
:01048D00006E
:02048E0000006C
:040490000000000068
:00000001FF
