:1000000002002E02000000000000000200000000BC
:1000100000000002000000000000000200000000DC
:0E0020000000000200000000000000020000CE
:10002E007581087590FF75B0FFE5B020E00280F98C
:10003E00E5B030E736E5B030E105A290B39290E539
:10004E00B030E205A291B39291E5B030E305A292F1
:10005E00B39292E5B030E405A293B392937D027E03
:10006E00457F3DDFFEDEFCDDFA8028E5B030E102A3
:10007E00C290E5B030E202C291E5B030E302C29226
:10008E00E5B030E402C2937EA37F1EDFFEDEFC00ED
:10009E0043900F7EA37F1EDFFEDEFC00013780FE45
:00000001FF
