:100000000208590200000000000000020000000089
:1000100000000002000000000000000208B600001E
:06002000000000020000D8
:060026007F18DFFE00223E
:09002C007E0B7FB2DFFEDEFC2238
:020035000022A7
:10003700E5145480F8630080E86004780080027853
:1000470001E8139287E5145440F8630040E8600420
:10005700780080027801E8139286E5145420F8634B
:100067000020E86004780080027801E8139285E5B3
:10007700145410F8630010E86004780080027801D7
:10008700E8139284E5086004780080027801E81399
:1000970092A6D2A71135C2A7E5145408F863000841
:1000A700E86004780080027801E8139287E5145429
:1000B70004F8630004E86004780080027801E8131C
:1000C7009286E5145402F8630002E8600478008021
:1000D700027801E8139285E5145401F8630001E8FA
:1000E7006004780080027801E8139284E5086004D0
:1000F700780080027801E81392A6D2A71135C2A72B
:0B010700E5086004112C800211262284
:10011200803C75F008758200E828F8E933F9CA33A3
:10012200CACB33CBC58233C5829CEA9DEB9EE58266
:100132009F400CF582E99CF9EA9DFAEB9EFB08D5FB
:10014200F0D6E4C9FCE4CAFDE4CBFEAF8222EF6044
:100152000280BFEE6002805BED6002802DEB8CF0CE
:1001620084C8C9CAFBE5F0CCFE7F18E828F8E93359
:10017200F9EA33FAEB33FBEC33FC10D7039E40046D
:10018200EC9EFC08DFE5E4FEFD227F18E828F8E992
:1001920033F9EA33FAEB33FBCE33CE10D7059CEEBC
:1001A2009D4007EB9CFBEE9DFE08DFE0E4CEFDE404
:1001B200CBFC2275F010E828F8E933F9EA33FACBE0
:1001C20033CBCF33CF10D7079CEB9DEF9E400AEA8B
:1001D2009CFAEB9DFBEF9EFF08D5F0DAE4CAFCE443
:0601E200CBFDE4CFFE227C
:0C01E800750800851314113775080122FA
:1001F400C2A7C2A6112C112C112CC287C286C2859B
:10020400C284D285D284D2A71135C2A7112CD2A719
:100214001135C2A7112CD2A71135C2A7112CD28532
:10022400C284D2A71135C2A7112CC287C286C28547
:10023400D285C284D2A71135C2A7C285D287D2A7DC
:100244001135C2A7112CC287D284D2A71135C2A7F7
:10025400C284D2A71135C2A7112CC284D2A71135EA
:10026400C2A7D284D2A71135C2A7112CC284D2A7A7
:100274001135C2A7D287D286D285D284D2A71135AE
:08028400C2A7112C750801222C
:10028C003392D530D5031202B7EB334010E833F874
:10029C00E933F9EA33FAEB33FBD5F0ED22E5F02440
:1002AC007EA2D513CB92E7CAC9F822C3E498F8E42E
:0902BC0099F9E49AFAE49BFB2293
:1002C500C2D5EF30E70FB2D5E4C39CFCE49DFDE455
:1002D5009EFEE49FFFEB30E717B2D51202FB120139
:1002E50012E4C39CFCE49DFDE49EFEE49FFF8003B5
:1002F50012011230D50DE4C398F8E499F9E49AFA9D
:05030500E49BFB222235
:10030A008019750F80802E750FC08029750F948013
:10031A0024750FD4801F750F80801AE50F64016061
:10032A00E1E50F640260E0E50F640360DFE50F6456
:10033A000460DE80E1C3E5109401F8E50F28F88532
:10034A00000F8500141137750800751200E5112594
:10035A0012F8E6600DE5112512F8861331E8051248
:06036A0080EB7508012282
:0703700075F020E4518C221E
:100377007580FF7590FF75A0FF75B0FFC2A531F4BA
:10038700751401113775140C1137750F01751001AC
:10039700751130710A750F02751001751143710AD5
:1003A700758C00758A00758DFC758B17758850756F
:0603B700891575A88822DB
:1003BD00E88CF0A4AFF0C88DF0A42FC98CF0A4295F
:0203CD00F92213
:0E03CF00A98C78007A00E58A28F8E439F92232
:1003DD00EB4A6011EF4E7017EA33EB3304600DE416
:1003ED00FBF8F9FA22EE33EF330470F8020516121A
:1003FD0004E15F046009E4CB248150062F5009020B
:10040D0005202F400302051DC0E0EC4D7044BE8059
:10041D0006D0E0FC02050CE849701CBA8008ECF827
:10042D00EDF9EEFA80EBEE8AF0A4F9E5F00204C6E0
:10043D00EECAFEEDF9ECF8E88EF0A4FBE5F0C98EFE
:10044D00F0A429F8E435F0CA8EF0A42AF9E435F0C9
:10045D008067E8497005BA80D780C3E88CF0A4ABFB
:10046D00F0E98CF0A42BFBE435F0FFE88DF0A42B24
:10047D00E5F03FFBE433CC8AF0A42BFBE5F03CFF29
:10048D00E98DF0A42BFBE5F03FFFE433C88EF0A41B
:10049D002BFBE5F03FC83400C98EF0A428F8E5F039
:1004AD0039F9E433CE8AF0A429F9E5F03ECA8DF08E
:1004BD00A428F8E5F039F9E43AFA33D0E0FC500617
:1004CD000CBC000E804DEB2BFBE833F8E933F9EA59
:1004DD0033FA8017EED2E7CE33EF33FF92D5EAD25F
:1004ED00E7CA33EB33FB5002B2D522EB30E71008ED
:1004FD00B8000C09B900080ABA00040CEC6014A28B
:10050D00D5EC13FBEA92E7FA2274FFFBFAF9F82215
:0F051D00E480F8A2D574FF13FB7A80E480EF220C
:10052C00EAD2E7CA33EB3392D524814006E4F8F9DA
:10053C00FAFB22FBE4C8C9CACB24E0501174FF803B
:10054C00EDC3CB13CBCA13CAC913C9C813C80470E3
:10055C00F030D5DEC3E498F8E499F9E49AFAE49B18
:02056C00FB2270
:08056E00E493F608A3D9F92279
:10057600C3E50B9400E50C9400E50D94007400644B
:1005860080F8E50E6480985026850A0F8509107557
:10059600113B710AC37400950BF50B7400950CF5AD
:1005A6000C7400950DF50D7400950EF50E800B85F7
:1005B6000A0F85091075113F710AD3E50B94E7E51B
:1005C6000C9403E50D940074006480F8E50E6480D5
:1005D600985002C194D3E50B940FE50C9427E50DD2
:1005E600940074006480F8E50E6480984002C1941B
:1005F6007CE87D037E00750700A80BA90CAA0DAB4D
:100606000E51C5743028F51331E87C647D007E00F8
:10061600750700A80BA90CAA0DAB0E51C57C0A7D67
:10062600007E0075070051C5A804A905AA06AB07F8
:10063600743028F51331E87C0A7D007E00750700CA
:10064600A80BA90CAA0DAB0E51C57C0A7D007E0035
:1006560075070051C5A804A905AA06AB077430287A
:10066600F51331E875132E31E87C0A7D007E00759E
:100676000700A80BA90CAA0DAB0E51C5A804A90525
:10068600AA06AB07743028F51331E8020858D3E5FB
:100696000B9463E50C9400E50D940074006480F8F7
:1006A600E50E6480985002E153D3E50B94E7E50C20
:1006B6009403E50D940074006480F8E50E64809858
:1006C6004002E15375132031E87C647D007E00759D
:1006D6000700A80BA90CAA0DAB0E51C57C0A7D001C
:1006E6007E0075070051C5A804A905AA06AB0774C4
:1006F6003028F51331E87C0A7D007E00750700A8D6
:100706000BA90CAA0DAB0E51C57C0A7D007E0075A7
:10071600070051C5A804A905AA06AB07743028F539
:100726001331E875132E31E87C0A7D007E007507CB
:1007360000A80BA90CAA0DAB0E51C5A804A905AAC1
:1007460006AB07743028F51331E8020858D3E50BD9
:100756009409E50C9400E50D940074006480F8E5B6
:100766000E6480985002E1EAD3E50B9463E50C949D
:1007760000E50D940074006480F8E50E64809840EE
:1007860002E1EA75132031E875132031E87C0A7D11
:10079600007E00750700A80BA90CAA0DAB0E51C56B
:1007A6007C0A7D007E0075070051C5A804A905AA2C
:1007B60006AB07743028F51331E875132E31E87C43
:1007C6000A7D007E00750700A80BA90CAA0DAB0ECA
:1007D60051C5A804A905AA06AB07743028F513313C
:1007E600E8020858C3E50B9400E50C9400E50D9467
:1007F6000074006480F8E50E6480984055D3E50BDC
:100806009409E50C9400E50D940074006480F8E505
:100816000E648098503C7513201201E8751320125F
:1008260001E87513301201E875132E1201E87C0AEF
:100836007D007E00750700A80BA90CAA0DAB0E1251
:1008460002C5A804A905AA06AB07743028F5131239
:0308560001E82294
:1008590075814E120939120377A841A94212037012
:100869007CCD7DCC7ECC75073E1203DD12052C753F
:10087900090B750A0185000B85010CE4F50DE4F5FA
:100889000E12057675090B750A0285410B85420C16
:10089900E4F50DE4F50E1205767588507D027E8625
:0D08A9007F16DFFEDEFCDDFA0080AE80FE73
:1008B600C000C001C004C005C007C0D0C0E0C0F081
:1008C600C082C083758DFC758B177401253DF53D7F
:1008D6007400353EF53ED3E53D94E7E53E9403408E
:1008E6001F7588001203CF7C0A7D001203BD8500A8
:1008F60041850142758A00758C00753D00753E0084
:10090600D083D082D0F0D0E0D0D0D007D005D004AC
:05091600D001D0003209
:0E0939007830791E75821B75830912056E22B7
:0B091B005370656564206D2F733A0077
:020926002D00A2
:020928000000CD
:02092A002000AB
:02092C000000C9
:0B092E00467265712E2020487A3A00C6
:00000001FF
