:1000000002125A020000000000000002000000007E
:1000100000000002000000000000000200000000DC
:0E0020000000000200000000000000020000CE
:09002E007E0B7FB2DFFEDEFC2236
:060037007F18DFFE00222D
:02003D0000229F
:10003F003392D530D50312006AEB334010E833F812
:10004F00E933F9EA33FAEB33FBD5F0ED22E5F0248F
:10005F007EA2D513CB92E7CAC9F822C3E498F8E47D
:09006F0099F9E49AFAE49BFB22E2
:10007800800302019FEE33EF3360110460F4EA332A
:10008800EB337009EFFBEEFAEDF9ECF8220460E2CD
:10009800D3EC98ED99EE9AEFC2E78BF0C2F795F0A2
:1000A800400CEFCBFFEECAFEEDC9FDECC8FC120117
:1000B8006A85D0F05F04700320D5B7EF047007504D
:1000C80002B2D50201A992D5EB0460F7E4CBC0E0F7
:1000D800C39FFF603B94186008400DD0E0FC02010C
:1000E80081E4FCFDCEFB8028EF30E406E4CEFCE49E
:1000F800CDFBEF30E305E4CECDCCFBEF5407601029
:10010800FFC3EE13FEED13FDEC13FCEB13FBDFF165
:1001180030F52DC3E49BFBE89CF8E99DF9EA9EFACB
:10012800D0E0FCE8494A4B701122DC028070EB2BCE
:10013800FBE833F8E933F9EA33FAEA30E7EC8039D7
:10014800E82CF8E93DF9EA3EFAD0E0FC50120CBC84
:100158000002804DEA13FAE913F9E813F8EB13FBF0
:100168008017EED2E7CE33EF33FF92D5EAD2E7CA53
:1001780033EB33FB5002B2D522EB30E71008B8005E
:100188000C09B900080ABA00040CEC6014A2D5ECFA
:1001980013FBEA92E7FA2274FFFBFAF9F822E480EB
:0D01A800F8A2D574FF13FB7A80E480EF22EB
:1001B500E54A5480F8630080E8600478008002789E
:1001C50001E8139287E54A5440F8630040E860046B
:1001D500780080027801E8139286E54A5420F86396
:1001E5000020E86004780080027801E8139285E534
:1001F5004A5410F8630010E8600478008002780122
:10020500E8139284E5086004780080027801E81319
:1002150092A6D2A7113DC2A7E54A5408F863000883
:10022500E86004780080027801E8139287E54A5473
:1002350004F8630004E86004780080027801E8139C
:100245009286E54A5402F8630002E860047800806B
:10025500027801E8139285E54A5401F8630001E844
:100265006004780080027801E8139284E508600450
:10027500780080027801E81392A6D2A7113DC2A7A3
:0B028500E5086004112E8002113722F2
:0702900075F020EB113F2285
:08029700EF6480FF12007822E1
:10029F00EAD2E7CA33EB3392D524814006E4F8F96A
:1002AF00FAFB22FBE4C8C9CACB24E0501174FF80CB
:1002BF00EDC3CB13CBCA13CAC913C9C813C8047073
:1002CF00F030D5DEC3E498F8E499F9E49AFAE49BA8
:0202DF00FB2200
:1002E1008019754780802E7547C080297547948095
:1002F100247547D4801F754780801AE547640160E3
:10030100E1E547640260E0E547640360DFE54764D7
:100311000460DE80E1C3E5489401F8E54728F885EB
:10032100004775080185004A31B575080085494ABD
:0603310031B57508012240
:0C03370075080085474A31B575080122A1
:1003430074F8CF6480CFCB6480CBF58204700280D5
:1003530043C3E89CF5F0E99D42F0EA9E42F0EB9F2F
:1003630045F060305018E5825CFCE582F428558244
:10037300F8502109B9001D0ABA00190B8016E5824D
:1003830058F8E582F42C5582FC50090DBD00050E8A
:10039300BE00010FC3E89CF5F0E99D42F0EA9E42DE
:1003A300F0EB9F45F06007CF4B20E701B3EF22222C
:1003B300EC600FEBC313FBEA13FAE913F9E813F844
:0303C300DCF12248
:1003C600EB4A6011EF4E7017EA33EB3304600DE42D
:1003D600FBF8F9FA22EE33EF330470F80204FF1249
:1003E60004CA5F046009E4CB248150062F50090239
:1003F60005092F4003020506C0E0EC4D7044BE809F
:1004060006D0E0FC0204F5E849701CBA8008ECF856
:10041600EDF9EEFA80EBEE8AF0A4F9E5F00204AF0E
:10042600EECAFEEDF9ECF8E88EF0A4FBE5F0C98E15
:10043600F0A429F8E435F0CA8EF0A42AF9E435F0E0
:100446008067E8497005BA80D780C3E88CF0A4AB12
:10045600F0E98CF0A42BFBE435F0FFE88DF0A42B3B
:10046600E5F03FFBE433CC8AF0A42BFBE5F03CFF40
:10047600E98DF0A42BFBE5F03FFFE433C88EF0A432
:100486002BFBE5F03FC83400C98EF0A428F8E5F050
:1004960039F9E433CE8AF0A429F9E5F03ECA8DF0A5
:1004A600A428F8E5F039F9E43AFA33D0E0FC50062E
:1004B6000CBC000E804DEB2BFBE833F8E933F9EA70
:1004C60033FA8017EED2E7CE33EF33FF92D5EAD276
:1004D600E7CA33EB33FB5002B2D522EB30E7100804
:1004E600B8000C09B900080ABA00040CEC6014A2A2
:1004F600D5EC13FBEA92E7FA2274FFFBFAF9F8222D
:0F050600E480F8A2D574FF13FB7A80E480EF2223
:10051500803C75F008758200E828F8E933F9CA339C
:10052500CACB33CBC58233C5829CEA9DEB9EE5825F
:100535009F400CF582E99CF9EA9DFAEB9EFB08D5F4
:10054500F0D6E4C9FCE4CAFDE4CBFEAF8222EF603D
:100555000280BFEE6002805BED6002802DEB8CF0C7
:1005650084C8C9CAFBE5F0CCFE7F18E828F8E93352
:10057500F9EA33FAEB33FBEC33FC10D7039E400466
:10058500EC9EFC08DFE5E4FEFD227F18E828F8E98B
:1005950033F9EA33FAEB33FBCE33CE10D7059CEEB5
:1005A5009D4007EB9CFBEE9DFE08DFE0E4CEFDE4FD
:1005B500CBFC2275F010E828F8E933F9EA33FACBD9
:1005C50033CBCF33CF10D7079CEB9DEF9E400AEA84
:1005D5009CFAEB9DFBEF9EFF08D5F0DAE4CAFCE43C
:0605E500CBFDE4CFFE2275
:1005EB0085393F853A40853B41853C42E541548006
:1005FB00F9E542547FFA7807EA088005C313C9135B
:10060B00C9D8F9FAE53D29F9E53E3AFA85013D8568
:10061B00023EC3E9940074006480F8EA6480985049
:10062B0009780079007A007B0022D3E53D94FF74B2
:10063B00006480F8E53E6480984031C37C007D0007
:10064B007E00750700A839A93AAA3BAB3C71434021
:10065B0004780080027801E8600978FF79FF7A7FDF
:10066B007BFF2278FF79FF7A7F7B7F227807AA00B6
:10067B00A93EE53D0A8005C333C933C9DAF9F8E56C
:10068B00416200E542620153008053017FE5416204
:10069B0000E5426201850041850142A83FA940AABD
:0406AB0041AB4222FB
:0F06AF00AB01AA007900780075F010EB113F2223
:1006BE007A02A940E53F0A8005C333C933C9DAF986
:1006CE00F8E53D28FCE53E39FD850482850583E489
:1006DE0093F8E4A393F9E4A393FAE4A393FB8500C0
:1006EE0041850142850243850344E53F4540700242
:1006FE008060A839A93AAA3BAB3CAC41AD42AE43AF
:10070E00AF4471C6C3E53F9401F53FE5409400F553
:10071E00407E02AD40E53F0E8005C333CD33CDDEC6
:10072E00F9FCE53D2CF545E53E3DF54685458285D2
:10073E004683E493FCE4A393FDE4A393FEE4A39326
:10074E00F5071178850041850142850243850344F2
:0B075E00C1F8A841A942AA43AB442205
:100769008003020849EB5A046005EF5E0470030236
:10077900083F12080A5F0460F6EB4F60F2EB700461
:10078900FAF9F822CF60DB2481CF5009C39F6002B8
:1007990050060208469F50CAF582EE2E4C4D700550
:1007A900AC8202083575F0007B1A7F80C3E89CE9AA
:1007B9009DEA9E400DC3E89CF8E99DF9EA9EFAEF8F
:1007C90042F0DB22ABF0D0E0F8D0E0F9D0E0FAACAF
:1007D9008220E7101CEC60BAEB2BFBE833F8E93315
:1007E900F9EA33FA8032EF03FF30E705C0F075F01C
:1007F90000E828F8E933F9EA33FA40B930E7C38069
:10080900ABEED2E7CE33EF33FF92D5EAD2E7CA3364
:10081900EB33FB5002B2D522EB30E71008B8000CDD
:1008290009B900080ABA00040CEC60ECA2D5EC1373
:10083900FBEA92E7FA2274FFFBFAF9F822E480F85E
:0C084900A2D574FF13FB7A80E480EF223C
:1008550075B08FC3E5B092E6F5B0D3E5B092E5F596
:10086500B0D3E5B092E4F5B0D3E5B092E6F5B0C308
:07087500E5B092E5F5B022A9
:10087C007C17A839A93AAA3BAB3C1203B35300FF2F
:10088C00530100850041850142C3E8947FFAE99445
:10089C0000FB850241850342C3EA94007400648026
:1008AC00F8EB6480985032C37C007D007E007507A5
:1008BC0000A839A93AAA3BAB3C1203434004780088
:1008CC0080027801E86009780079007A807BBF2289
:1008DC00780079007A007B0022D3E5419418E54238
:1008EC0094004009A839A93AAA3BAB3C22A839A9E3
:1008FC003AAA3BAB3C12029F12029085003D850147
:10090C003E85023F850340D3AC39AD3AAE3BAF3C9C
:10091C0012034360064004780180027800E86015F9
:10092C007C007D007E8075073FA83DA93EAA3FABA9
:0E093C004012029722A83DA93EAA3FAB4022DE
:10094A008019753980802E7539C08029753994804F
:10095A00247539D4801F753980801AE5396401609D
:10096A00E1E539640260E0E539640360DFE5396492
:10097A000460DE80E1C3E53A9401F8E53928F88598
:10098A00003985004A1201B5750800753C00E53B3F
:10099A00253CF8E6600EE53B253CF886471203370E
:0809AA00053C80EA75080122FA
:1009B200C2A7C2A612002E12002E12002EC287C299
:1009C20086C285C284D285D284D2A712003DC2A734
:1009D20012002ED2A712003DC2A712002ED2A712D9
:1009E200003DC2A712002ED285C284D2A712003DBA
:1009F200C2A712002EC287C286C285D285C284D205
:100A0200A712003DC2A7C285D287D2A712003DC25B
:100A1200A712002EC287D284D2A712003DC2A7C25B
:100A220084D2A712003DC2A712002EC284D2A712FE
:100A3200003DC2A7D284D2A712003DC2A712002E47
:100A4200C284D2A712003DC2A7D287D286D285D253
:0F0A520084D2A712003DC2A712002E7508012200
:100A610085393E853A3F853B40853C41E540548090
:100A7100F9E541547FFA7807EA088005C313C913E1
:100A8100C9D8F9FAC3E9947EF9EA9400FAA83DA617
:100A91000108A60274006540F8743F6541F95300EE
:100AA1008053017FE5406200E54162018500408598
:0B0AB1000141A83EA93FAA40AB412232
:100ABC00753908753A00D3E539940040307801E572
:100ACC003A088002C333D8FCF53AD3E5B092E6F588
:100ADC00B0C3E5B092E6F5B07E027FF1DFFEDEFC3E
:100AEC00E5B0A2E7E433F8423A153980C9A83A22B6
:100AFC00D3E5B092E6F5B00000C3E5B092E6F5B0F0
:030B0C00000022C4
:100B0F00753A08D3E53A9400403A7907E5390980F8
:100B1F0002C313D9FCF813E5B092E4F5B07801E500
:100B2F0039088002C333D8FCF539C3E5B092E6F536
:100B3F00B0D3E5B092E6F5B07E027FF1DFFEDEFCCA
:050B4F00153A80BF22F1
:100B5400C2D5EF30E70FB2D5E4C39CFCE49DFDE4BD
:100B64009EFEE49FFFEB30E717B2D5120B8A120505
:100B740015E4C39CFCE49DFDE49EFEE49FFF80031A
:100B840012051530D50DE4C398F8E499F9E49AFAFE
:050B9400E49BFB22229E
:100B9900753B00754A401201B5753B00D3E53B949E
:100BA90007501CE53B240DF9E43415FA85018285CB
:100BB9000283E493F8850047120337053B80DD750E
:100BC9004A021201B5853947853A4875490012022A
:020BD900E12217
:100BDB007C007D007E00750700A815A916AA17AB2F
:100BEB00181203436004780080027801E8600978EA
:100BFB000079007A807B3F22D37CFE7DD47EB27558
:100C0B000742A815A916AA17AB1812034360064092
:100C1B0004780180027800E8600978FF79FF7A7F19
:100C2B007B7F22C37C507DAC7EAE7507C2A815A915
:100C3B0016AA17AB18120343400478008002780100
:100C4B00E86009780079007A007B0022C37C007D84
:100C5B00007E00750700A815A916AA17AB1812037A
:100C6B0043400478008002780185001BE8600C6328
:100C7B001500631600631700631880A815A916AA40
:100C8B0017AB187C3B7DAA7EB875073F1203C68550
:100C9B000015850116850217850318850039850116
:100CAB003A85023B85033C117C12029F8500198516
:100CBB00011A1206AFAC00AD01AE02AF03A815A925
:100CCB0016AA17AB18120297850015850116850217
:100CDB001785031885003985013A85023B85033C4E
:100CEB00753D91753E14753F097540001206BE8522
:100CFB00003985013A85023B85033C85193D851AF0
:100D0B003E1205EB85001585011685021785031824
:100D1B00E51B603C7CFF7DFF7E7F75077FA815A9D7
:100D2B0016AA17AB181203436004780080027801EF
:100D3B00E86009780079007A007B0022AC15AD16CB
:100D4B00AE17AF18780079007A807B3F12076922C3
:090D5B00A815A916AA17AB18226D
:080D6400E493F608A3D9F9227B
:100D6C007580FF7590FF75A0E075B0FFC2A531B21C
:100D7C00754A011201B5754A0C1201B511557EC3A5
:070D8C007F8CDFFEDEFC227C
:100D9300753901753A01751541751630751700756A
:100DA3003B15314A753902753A0175184175193188
:100DB300751A00753B18314A753903753A01751B6D
:100DC30041751C32751D00753B1B314A753904751D
:100DD3003A01751E41751F33752000753B1E314A5C
:100DE300753901753A0A75215675225275232F7587
:100DF300246D752556752600753B21314A753902D8
:100E0300753A0A75275475286375292F752A207535
:100E13002B43752C00753B27314A753903753A0A04
:100E2300752D4C752E44752F2F75304C7531787593
:100E33003200753B2D314A753904753A0A753356BC
:100E430075346975352F75366D7537567538007578
:0D0E53003B33314A753902753A0D71992211
:080E600075F020E412003F22AE
:100E6800751700751800751900751A00C3E5B0925A
:100E7800E5F5B074804515F539E5164239710F511D
:100E8800FC51BC850017E4F51851BC850019E4F540
:100E98001AD3E5B092E5F5B0A9177800E519420034
:100EA800E51A420185001985011AE854FFFBE95447
:100EB800FFFC8503178504187A04ECA8030A80054B
:0F0EC800C313C813C8DAF9F9850017850118227A
:100ED700C3E5179400E5189400E5199400740064BD
:100EE70080F8E51A648098502CC374009517F5179D
:100EF70074009518F51874009519F5197400951A6A
:100F0700F51A85163985153A751B2D751C00753B25
:100F17001B314A801185163985153A751D20751EB6
:100F270000753B1D314AD3E51794E7E5189403E5AF
:100F370019940074006480F8E51A648098500302DD
:100F47001015D3E517940FE5189427E51994007445
:100F5700006480F8E51A64809840030210157C103D
:100F67007D277E00750700A817A918AA19AB1A7163
:100F770054A804A905AA06AB077CE87D037E007583
:100F870007007154743028F5471203377CE87D0356
:100F97007E00750700A817A918AA19AB1A7154A8DB
:100FA70004A905AA06AB077C647D007E00750700CF
:100FB7007154743028F5471203377C647D007E0036
:100FC700750700A817A918AA19AB1A7154A804A97C
:100FD70005AA06AB077C0A7D007E007507007154E1
:100FE700743028F5471203377C0A7D007E007507A9
:100FF70000A817A918AA19AB1A120B54A804A90517
:10100700AA06AB07743028F54712033721A5D3E5A5
:10101700179463E5189400E519940074006480F848
:10102700E51A648098500201D7D3E51794E7E518CD
:101037009403E519940074006480F8E51A648098B5
:10104700400201D77547201203377CE87D037E00F5
:10105700750700A817A918AA19AB1A120B54A804E8
:10106700A905AA06AB077C647D007E007507001200
:101077000B54743028F5471203377C647D007E00DB
:10108700750700A817A918AA19AB1A120B54A804B8
:10109700A905AA06AB077C0A7D007E00750700122A
:1010A7000B54743028F5471203377C0A7D007E0005
:1010B700750700A817A918AA19AB1A120B54A80488
:1010C700A905AA06AB07743028F54712033721A5EF
:1010D700D3E5179409E5189400E5199400740064A2
:1010E70080F8E51A6480985002216FD3E51794635E
:1010F700E5189400E519940074006480F8E51A6413
:101107008098400280627547201203377547201286
:1011170003377C647D007E00750700A817A918AA0D
:1011270019AB1A120B54A804A905AA06AB077C0A27
:101137007D007E00750700120B54743028F54712A6
:1011470003377C0A7D007E00750700A817A918AA37
:1011570019AB1A120B54A804A905AA06AB077430D9
:1011670028F547120337803675472012033775472E
:10117700201203377547201203377C0A7D007E0053
:10118700750700A817A918AA19AB1A120B54A804B7
:0F119700A905AA06AB07743028F54712033722C3
:1011A600D37C007D007E00750700A815A916AA1736
:1011B600AB1812034360064004780080027801E809
:1011C6006009780079007A007B002285153985163A
:1011D6003A85173B85183C753D19120A617C007DDE
:1011E600007E007507401203C67C007D007E807578
:1011F600073F12029785001585011685021785039C
:1012060018C3E5199401F519E51A9400F51A850035
:101216003985013A85023B85033C753DDD753E14F3
:10122600753F087540001206BE85001585011685B6
:101236000217850318A819A91A1206AF7C187D7221
:101246007E3175073F1203C6AC15AD16AE17AF1843
:0412560012007822E8
:10125A007581807582017583157809790C120D6480
:10126A00120D6C120D9375099E750A14750B54753F
:10127A000C4175099E750A14750B54750CC17515C8
:10128A009E7516147517547518C1120BDB85000963
:10129A0085010A85020B85030C7C007D407E1C7546
:1012AA0007461203C685000985010A85020B8503D4
:1012BA000C751510751604120E6885000D85010E41
:1012CA00751504751601850017850118E4F519E4EA
:1012DA00F51A120ED7751510751601A80DA90E125A
:1012EA000E607CC57D497E9C75073F1203C61202BB
:1012FA009F85001785011885021985031A120ED7D2
:10130A00751550751604120E6885000F8501107543
:10131A001504751602850017850118E4F519E4F518
:10132A001A120ED7A80FA910120E60AC00AD01AEAA
:10133A0002AF03780079F07A7F7B451207697C0057
:10134A007D007E8075073F1202977C007D407E1CDF
:10135A007507461203C6AC09AD0AAE0BAF0C1207ED
:10136A006985001585011685021785031831A6AC13
:10137A0000AD01AE02AF03780079E07A767B4512C0
:10138A0007697C007D807E88750743120297751570
:10139A001075160212029F85001785011885021919
:1013AA0085031A120ED7751520751604120E688554
:1013BA00001185011275150475160385001785013C
:1013CA0018E4F519E4F51A120ED7A811A912120E8B
:1013DA0060AC00AD01AE02AF03780079F07A7F7B92
:1013EA00451207697C007D007E8075073F120297CF
:1013FA007C007D007EC87507421203C6AC00AD01B1
:10140A00AE02AF03780079247AF47B481207697533
:10141A00151075160312029F85001785011885029B
:10142A001985031A120ED7751560751604120E68FF
:10143A008500138501147515047516048500178532
:10144A000118E4F519E4F51A120ED7751510751678
:10145A0004A813A914120E607CC57D497E9C7507E9
:10146A003F1203C612029F850017850118850219CB
:10147A0085031A120ED77D057E907F49DFFEDEFCBA
:07148A00DDFA0041BB80FE0A
:101491000000803F1872313FF0FD753E4758633DB3
:1014A10058951D3C82C4AE3AA8782139EF93803714
:0814B100A092A7354656153440
:0314B900413000BF
:0314BC00413100BB
:0314BF00413200B7
:0314C200413300B3
:0614C50056522F6D560087
:0614CB0054632F204300D2
:0614D1004C442F4C780092
:0614D70056692F6D56005E
:1014DD00FFE6DB2EC4FF7F3F80EFFFBE90E1A93E0C
:1014ED00EC8276BE82AD2B3E0E3CC3BD87D1133D43
:0414FD004178D3BBA4
:0415010000000000E6
:021505000000E4
:021507000000E2
:021509000000E0
:02150B000000DE
:08150D000609090600000000B8
:00000001FF
