:10000000020363020000000000000002013F000044
:1000100000000002000000000000000203100000C9
:06002000000000020000D8
:100026007580FF7590FF75A0F075B0FF758A007535
:100036008C00758B17758DFC75895175885075A860
:020046008A220C
:1000480075A07F7E117F21DFFEDEFCE5A0540FF94D
:10005800640E7003780A22E5A0540FF9640D70034A
:10006800780322E5A0540FF9640B7003780222E5A7
:10007800A0540FF96407700378012275A0BF7E11A0
:100088007F21DFFEDEFCE5A0540FF9640E700378D3
:100098000B22E5A0540FF9640D7003780622E5A041
:1000A800540FF9640B7003780522E5A0540FF96426
:1000B80007700378042275A0DF7E117F21DFFEDE42
:1000C800FCE5A0540FF9640E7003780C22E5A054E7
:1000D8000FF9640D7003780922E5A0540FF9640B39
:1000E8007003780822E5A0540FF9640770037807B5
:1000F8002275A0EF7E117F21DFFEDEFCE5A0540F04
:10010800F9640E7003780D22E5A0540FF9640D70A0
:1001180003780F22E5A0540FF9640B7003780022CE
:0F012800E5A0540FF964077003780E2278FF22C8
:08013700E493F608A3D9F922B4
:10013F00C000C001C0D0C0E0C0F0C082C083758ACB
:10014F0017758CFC41B775F00AE53384F8850031DB
:10015F00E5356401700AE50830E1057590008015FA
:10016F00E531245AF9E43404FA850182850283E4E7
:10017F0093F885009075B00041F575F00AE533846A
:10018F00E5F0F8850031E5356402700AE50830E1E5
:10019F00057590008015E531245AF9E43404FA8589
:1001AF000182850283E493F885009075B00141F5D3
:1001BF00E50830E105759040800375900075B00239
:1001CF0041F575F00AE53484F8850031E5356403AF
:1001DF00700AE50830E1057590008015E531245A65
:1001EF00F9E43404FA850182850283E493F88500EB
:1001FF009075B00341F575F00AE53484E5F0F885A4
:10020F000031E5356404700AE50830E105759000AA
:10021F008015E531245AF9E43404FA850182850208
:10022F0083E493F885009075B00441F5E50830E15B
:10023F0005759040800375900075B00541F575F018
:10024F000AE53284F8850031E5356405700AE50862
:10025F0030E1057590008015E531245AF9E4340436
:10026F00FA850182850283E493F885009075B006C4
:10027F0041F575F00AE53284E5F0F8850031E53592
:10028F006406700AE50830E1057590008015E531C8
:10029F00245AF9E43404FA850182850283E493F841
:1002AF0085009075B007803EE53070022155E5302E
:1002BF00640170022189E5306402700221BFE530CC
:1002CF006403700221D1E530640470024105E5300A
:1002DF0064057002413BE53064067002414DE53024
:1002EF006407700241810530D3E5309407400375F0
:1002FF003000D083D082D0F0D0E0D0D0D001D00069
:01030F0032BB
:10031000C000C0D0C0E0C0F0C082C083758BFF7544
:100320008D7FE508A2E1B3E50892E1F508E5082034
:10033000E0240532D3E532943B40057532000534A4
:10034000D3E534943B40057534000533D3E533944D
:10035000174003753300D083D082D0F0D0E0D0D0E6
:03036000D0003298
:1003630075813612046A7509001126C3E50892E007
:10037300F508C3E50892E2F5081148E8640F701721
:10038300D3E50892E0F5087535017D077E4E7FA918
:10039300DFFEDEFCDDFA00E50820E00281561148AD
:1003A300C3E8940040211148D3E894095019E508A3
:1003B30020E2141148850009D3E50892E2F5087E8E
:1003C300487FB7DFFEDEFCE50820E2028156804568
:1003D30085093375F00AE509A4F8850033805AE5E9
:1003E300332509F533805285093475F00AE509A4EC
:1003F300F88500348043E5342509F534803B8509CD
:100403003275F00AE509A4F8850032802CE532251F
:1004130009F5328024E535640160B5E53564026091
:10042300BEE535640360C0E535640460C9E5356441
:100433000560CBE535640660D40535D3E535940610
:10044300400AC3E50892E0F508753500C3E5089254
:07045300E2F508617C80FE68
:0E046A0078307906758264758304120137229A
:0A045A003F065B4F666D7D077F6F64
:010464000097
:010465000096
:010466000A8B
:010467000A8A
:010468000A89
:010469000092
:00000001FF
