:100000000215C20200000000000000020000000013
:1000100000000002000000000000000200000000DC
:0E0020000000000200000000000000020000CE
:10002E00C3E5B092E2F5B0D2A5E5395401F81392CA
:0B003E00A6C2A70085388000D2A722D0
:10004900E88CF0A4AFF0C88DF0A42FC98CF0A429D6
:02005900F9228A
:10005B00E53724B0F8850037850038753900112E47
:10006B007804E536088002C313D8FCF53853380FF3
:10007B00433810753900112EE536540FF5387539A4
:04008B0000112E2210
:10008F00803C75F008758200E828F8E933F9CA3327
:10009F00CACB33CBC58233C5829CEA9DEB9EE582EA
:1000AF009F400CF582E99CF9EA9DFAEB9EFB08D57F
:1000BF00F0D6E4C9FCE4CAFDE4CBFEAF8222EF60C8
:1000CF000280BFEE6002805BED6002802DEB8CF052
:1000DF0084C8C9CAFBE5F0CCFE7F18E828F8E933DD
:1000EF00F9EA33FAEB33FBEC33FC10D7039E4004F1
:1000FF00EC9EFC08DFE5E4FEFD227F18E828F8E916
:10010F0033F9EA33FAEB33FBCE33CE10D7059CEE3F
:10011F009D4007EB9CFBEE9DFE08DFE0E4CEFDE487
:10012F00CBFC2275F010E828F8E933F9EA33FACB63
:10013F0033CBCF33CF10D7079CEB9DEF9E400AEA0E
:10014F009CFAEB9DFBEF9EFF08D5F0DAE4CAFCE4C6
:06015F00CBFDE4CFFE22FF
:10016500753400753500C3E5339420F534D3E53196
:10017500947A40057531000532853136853237115F
:100185005B753500C3E5359406502E78067900ACCD
:1001950034E4FD114974C128F8741B39F9E5352893
:1001A500FAE439FB850282850383E493F8850038F8
:0A01B500753901112E053580CB22AB
:1001BF003392D530D5031201EAEB334010E833F810
:1001CF00E933F9EA33FAEB33FBD5F0ED22E5F0240E
:1001DF007EA2D513CB92E7CAC9F822C3E498F8E4FC
:0901EF0099F9E49AFAE49BFB2261
:1001F800BD000BB90029E88CF084F8ACF022E4CDFE
:10020800FF75F008E828F8E933F9ED33FDE99CEDCE
:100218009F4005FDE99CF908D5F0E9E4C9FC22EC0A
:10022800FFF5F0E98420D21CF9ACF075F008E82855
:10023800F8EC33FC40079F5006D5F0F222C39FFC30
:0502480008D5F0EA22D8
:10024D00EB4A6011EF4E7017EA33EB3304600DE4A7
:10025D00FBF8F9FA22EE33EF330470F8020386123D
:10026D0003515F046009E4CB248150062F5009022D
:10027D0003902F400302038DC0E0EC4D7044BE800F
:10028D0006D0E0FC02037CE849701CBA8008ECF84B
:10029D00EDF9EEFA80EBEE8AF0A4F9E5F002033603
:1002AD00EECAFEEDF9ECF8E88EF0A4FBE5F0C98E90
:1002BD00F0A429F8E435F0CA8EF0A42AF9E435F05B
:1002CD008067E8497005BA80D780C3E88CF0A4AB8D
:1002DD00F0E98CF0A42BFBE435F0FFE88DF0A42BB6
:1002ED00E5F03FFBE433CC8AF0A42BFBE5F03CFFBB
:1002FD00E98DF0A42BFBE5F03FFFE433C88EF0A4AD
:10030D002BFBE5F03FC83400C98EF0A428F8E5F0CA
:10031D0039F9E433CE8AF0A429F9E5F03ECA8DF01F
:10032D00A428F8E5F039F9E43AFA33D0E0FC5006A8
:10033D000CBC000E804DEB2BFBE833F8E933F9EAEA
:10034D0033FA8017EED2E7CE33EF33FF92D5EAD2F0
:10035D00E7CA33EB33FB5002B2D522EB30E710087E
:10036D00B8000C09B900080ABA00040CEC6014A21C
:10037D00D5EC13FBEA92E7FA2274FFFBFAF9F822A7
:0F038D00E480F8A2D574FF13FB7A80E480EF229E
:02039C0000223D
:10039E00C2D5EF30E70FB2D5E4C39CFCE49DFDE47B
:1003AE009EFEE49FFFEB30E717B2D51203D4120086
:1003BE008FE4C39CFCE49DFDE49EFEE49FFF80035E
:1003CE0012008F30D50DE4C398F8E499F9E49AFA47
:0503DE00E49BFB22225C
:1003E300800302050AEE33EF3360110460F4EA334D
:1003F300EB337009EFFBEEFAEDF9ECF8220460E25F
:10040300D3EC98ED99EE9AEFC2E78BF0C2F795F033
:10041300400CEFCBFFEECAFEEDC9FDECC8FC1204A5
:10042300D585D0F05F04700320D5B7EF0470075073
:1004330002B2D502051492D5EB0460F7E4CBC0E019
:10044300C39FFF603B94186008400DD0E0FC02049A
:10045300ECE4FCFDCEFB8028EF30E406E4CEFCE4C4
:10046300CDFBEF30E305E4CECDCCFBEF54076010BA
:10047300FFC3EE13FEED13FDEC13FCEB13FBDFF1F7
:1004830030F52DC3E49BFBE89CF8E99DF9EA9EFA5D
:10049300D0E0FCE8494A4B701122DC028070EB2B60
:1004A300FBE833F8E933F9EA33FAEA30E7EC803969
:1004B300E82CF8E93DF9EA3EFAD0E0FC50120CBC16
:1004C3000002804DEA13FAE913F9E813F8EB13FB82
:1004D3008017EED2E7CE33EF33FF92D5EAD2E7CAE5
:1004E30033EB33FB5002B2D522EB30E71008B800F0
:1004F3000C09B900080ABA00040CEC6014A2D5EC8C
:1005030013FBEA92E7FA2274FFFBFAF9F822E4807C
:0D051300F8A2D574FF13FB7A80E480EF227C
:100520007A02A92AE5290A8005C333C933C9DAF951
:10053000F8E52728FCE52839FD850482850583E454
:1005400093F8E4A393F9E4A393FAE4A393FB85005F
:100550002B85012C85022D85032EE529452A700265
:100560008060A823A924AA25AB26AC2BAD2CAE2DE8
:10057000AF2E514DC3E5299401F529E52A9400F5E4
:100580002A7E02AD2AE5290E8005C333CD33CDDEA8
:10059000F9FCE5272CF52FE5283DF530852F8285E0
:1005A0003083E493FCE4A393FDE4A393FEE4A393DC
:1005B000F50771E385002B85012C85022D85032E1F
:0B05C000A15AA82BA92CAA2DAB2E22BB
:0F05CB00AB01AA007900780075F010EB31BF2268
:1005DA00C2D5ED30E709B2D5E4C39CFCE49DFDE940
:1005EA0030E715B2D5E4C398F8E499F91201F8C3D3
:1005FA00E49CFCE49DFD80031201F830D507C3E4B6
:06060A0098F8E499F922C2
:0706100075F020EB31BF2261
:1006170085233185243275332E31657CE87D03A827
:1006270025A92631F8E5232406F5318524327430CF
:1006370028F5333165D3E52794015002C1B97CE829
:100647007D03A825A92631F8A804A9057C647D00A7
:1006570031F8E523240CF531852432743028F5333D
:100667003165D3E527940240497C647D00A825A91C
:100677002631F8A804A9057C0A7D0031F8E5232472
:1006870012F531852432743028F5333165D3E527E7
:100697009403401E7C0A7D00A825A92631F8A804EA
:1006A700A905E5232418F531852432743028F5335C
:0306B70031652288
:1006BA00EAD2E7CA33EB3392D524814006E4F8F94B
:1006CA00FAFB22FBE4C8C9CACB24E0501174FF80AC
:1006DA00EDC3CB13CBCA13CAC913C9C813C8047054
:1006EA00F030D5DEC3E498F8E499F9E49AFAE49B89
:0206FA00FB22E1
:1006FC00C3E5259400E5269400E527940074006476
:10070C0080F8E5286480985026852331852432753D
:10071C00332D3165C374009525F52574009526F5A8
:10072C002674009527F52774009528F528800B85ED
:10073C0023318524327533203165D3E525940FE5BB
:10074C00269427E527940074006480F8E5286480DB
:10075C009850030208597C107D277E00750700A86D
:10076C0025A926AA27AB28719EE5232406F53185F9
:10077C002432743028F53331657C107D277E00756A
:10078C000700A825A926AA27AB28719EA804A905AD
:10079C00AA06AB077CE87D037E00750700719EE519
:1007AC0023240CF531852432743028F53331657CE3
:1007BC00E87D037E00750700A825A926AA27AB288B
:1007CC00719EA804A905AA06AB077C647D007E0077
:1007DC00750700719EE5232412F53185243274309F
:1007EC0028F53331657C647D007E00750700A825F3
:1007FC00A926AA27AB2812039EA804A905AA06AB12
:10080C00077C0A7D007E0075070012039EE52324F9
:10081C0018F531852432743028F5331201657C0AC1
:10082C007D007E00750700A825A926AA27AB2812F3
:10083C00039EA804A905AA06AB07E523241EF531DF
:10084C00852432743028F53312016561A1D3E52576
:10085C0094E7E5269403E527940074006480F8E59A
:10086C002864809850022178D3E525940FE52694CE
:10087C0027E527940074006480F8E528648098408C
:10088C000221787C107D277E00750700A825A926FB
:10089C00AA27AB2812039EA804A905AA06AB077CBD
:1008AC00E87D037E0075070012039EE5232406F500
:1008BC0031852432743028F5331201657CE87D03D0
:1008CC007E00750700A825A926AA27AB2812039E2F
:1008DC00A804A905AA06AB077C647D007E007507F9
:1008EC000012039EE523240CF53185243274302844
:1008FC00F5331201657C647D007E00750700A82528
:10090C00A926AA27AB2812039EA804A905AA06AB00
:10091C00077C0A7D007E0075070012039EE52324E8
:10092C0012F531852432743028F5331201657C0AB6
:10093C007D007E00750700A825A926AA27AB2812E2
:10094C00039EA804A905AA06AB07E5232418F531D4
:10095C00852432743028F533120165E523241EF505
:10096C003185243275332012016561A1D3E52594BC
:10097C0063E5269400E527940074006480F8E5286C
:10098C006480985002416DD3E52594E7E5269403E5
:10099C00E527940074006480F8E528648098400290
:1009AC00416D7CE87D037E00750700A825A926AA69
:1009BC0027AB2812039EA804A905AA06AB077C64E2
:1009CC007D007E0075070012039EE5232406F53199
:1009DC00852432743028F5331201657C647D007EE9
:1009EC0000750700A825A926AA27AB2812039EA8E4
:1009FC0004A905AA06AB077C0A7D007E00750700DA
:100A0C0012039EE523240CF531852432743028F52D
:100A1C00331201657C0A7D007E00750700A825A9AC
:100A2C0026AA27AB2812039EA804A905AA06AB0781
:100A3C00E5232412F531852432743028F533120164
:100A4C0065E5232418F531852432753320120165B0
:100A5C00E523241EF531852432753320120165619E
:100A6C00A1D3E5259409E5269400E52794007400AC
:100A7C006480F8E52864809850026138D3E52594A9
:100A8C0063E5269400E527940074006480F8E5285B
:100A9C00648098400261387C647D007E007507009C
:100AAC00A825A926AA27AB2812039EA804A905AA43
:100ABC0006AB077C0A7D007E0075070012039EE5DD
:100ACC00232406F531852432743028F53312016560
:100ADC007C0A7D007E00750700A825A926AA27ABF5
:100AEC002812039EA804A905AA06AB07E523240C2B
:100AFC00F531852432743028F533120165E5232451
:100B0C0012F531852432753320120165E523241842
:100B1C00F531852432753320120165E523241EF549
:100B2C003185243275332012016580697C0A7D0081
:100B3C007E00750700A825A926AA27AB2812039EBC
:100B4C00A804A905AA06AB07E5232406F5318524DC
:100B5C0032743028F533120165E523240CF5318508
:100B6C002432753320120165E5232412F5318524D6
:100B7C0032753320120165E5232418F531852432B2
:100B8C00753320120165E523241EF5318524327559
:060B9C0033201201652266
:100BA200C2A012039C12039CD2A1C3E50892E0F5F5
:100BB2000820A109E50830E002800280F412039CBB
:100BC20012039C12039C12039C12039C12039C129C
:0E0BD200039C12039CD2A012039C12039C22CF
:100BE000752500752600752780752800E52745289E
:100BF000604A12039C12039CD2A012039C12039C15
:100C0000D2A1C3E50892E0F50820A109E50830E08B
:100C100002800280F430A008E5274225E52842261C
:100C200012039C12039CC2A17801E528088007C327
:100C300013C52713C527D8F7F52880B0D2A0120313
:100C40009C12039CE52345246002C2A012039C125F
:100C5000039CD2A1C3E50892E0F50820A109E508AC
:100C600030E002800280F412039C12039CC2A112A5
:0C0C7000039C12039CC2A0A825A9262208
:100C7C00752401752500752680752700E526452706
:100C8C00605612039C12039C12039C12039CC2A17B
:100C9C0012039C12039CE5235526F8E45527F9E82A
:100CAC00496004D2A08002C2A012039C12039CD201
:100CBC00A1C3E50892E0F50820A109E50830E0029F
:100CCC00800280F47801E527088007C313C526133A
:100CDC00C526D8F7F52780A47524007525001203C6
:100CEC009C12039CC2A112039C12039CD2A012035F
:100CFC009C12039C12039C12039CD2A1C3E5089284
:100D0C00E0F50820A109E50830E002800280F475C6
:100D1C00240075250012039C12039C30A00643246A
:100D2C000143250012039C12039C12039C12039C8A
:100D3C0012039C12039C12039C12039C12039C1220
:100D4C00039C12039C12039C12039C12039C12031F
:0D0D5C009C12039CC2A1C2A0A824A92522BC
:100D6900C3E5B092E3F5B07538E375390012002E8A
:100D79007F2CDFFE00C3E5B092E2F5B0D3E5B09277
:100D8900E3F5B07538E275390012002E7538E37550
:100D9900390012002E7F2CDFFE007538A07539004E
:100DA90012002E7538C875390012002E7538A675CF
:100DB900390012002E7538A475390012002E7538C5
:100DC900A275390012002E7538F975390012002EF6
:100DD90075388175390012002E753823753900125E
:100DE900002E75382575390012002E75382F753982
:100DF9000012002E7538E375390012002E7F2CDFA2
:100E0900FE0075384075390012002E7538AF7539F6
:100E19000012002E7538E375390012002E7F2CDF81
:030E2900FE0022A6
:100E2C00D2A012039C12039CD2A112039C12039C0D
:0B0E3C00C2A012039C12039CC2A12262
:100E470074F8CF6480CFCB6480CBF58204700280C6
:100E570043C3E89CF5F0E99D42F0EA9E42F0EB9F20
:100E670045F060305018E5825CFCE582F428558235
:100E7700F8502109B9001D0ABA00190B8016E5823E
:100E870058F8E582F42C5582FC50090DBD00050E7B
:100E9700BE00010FC3E89CF5F0E99D42F0EA9E42CF
:100EA700F0EB9F45F06007CF4B20E701B3EF22221D
:080EB700EF6480FF1203E32247
:100EBF0085232885242985252A85262BE52A5480F4
:100ECF00F9E52B547FFA7807EA088005C313C91395
:100EDF00C9D8F9FAC3E9947EF9EA9400FAA827A6CB
:100EEF000108A6027400652AF8743F652BF95300B8
:100EFF008053017FE52A6200E52B620185002A8578
:0B0F0F00012BA828A929AA2AAB2B223D
:100F1A00751500751600751700751800751500C34C
:100F2A00E5159408506175384075390012002EE5B0
:100F3A001524B0F53875390012002E753810753938
:100F4A000012002E75380075390012002E75160031
:100F5A00C3E5169480502C74C12517F974173518F7
:100F6A00FA850182850283E493F885003875390190
:100F7A0012002E74012517F51774003518F5180597
:080F8A001680CD0515809822A8
:100F9200751600D12C752390917CE51554FFF5232D
:100FA200917C71A2D12C752391917C7523017524BA
:100FB2000071E075230075240071E085001671A2AE
:030FC200A816224C
:100FC500D12C752390917CE51554FFF523917C85F3
:070FD5001623917C71A2229A
:08100000E493F608A3D9F922DC
:04100800120D69223A
:0D100C00AB0075F008E4FAF9F81201BF22FC
:10101900751C00751D00751E00751F00A817A918FD
:10102900AA19AB1A1206BA85001C85011D85021E74
:1010390085031F85152385162485002585012685A9
:1010490002278503281206FCA81CA91DAA1EAB1F8E
:10105900120610AC00AD01AE02AF03A817A918AA79
:1010690019AB1A120EB77C007D407E1C750746121B
:10107900024D1206BA85001C85011D85021E8503D5
:101089001FC3E89400E99400EA940074006480FCAA
:10109900EB64809C5019C37400951CF51C74009571
:1010A9001DF51D7400951EF51E7400951FF51FC3CF
:1010B9007C007D3C7E1C750746A817A918AA19ABA8
:1010C9001A120E475004780080027801E86037C38D
:1010D9007C807D4F7EC3750747A817A918AA19AB4D
:1010E9001A120E474004780080027801E86017E57B
:1010F900152424F523851624851C25851D26851B85
:10110900271206174183C37C007DC07E7975074489
:10111900A817A918AA19AB1A120E4750047800800B
:10112900027801E86037C37C007D3C7E1C75074668
:10113900A817A918AA19AB1A120E474004780080FB
:10114900027801E86017E515241EF5238516248524
:101159001C25851D26851B271206174183C37C0084
:101169007D007EC6750742A817A918AA19AB1A12DD
:101179000E475004780080027801E86037C37C008C
:101189007DC07E79750744A817A918AA19AB1A1248
:101199000E474004780080027801E86017E51524BD
:1011A90018F523851624851C25851D26851B2712E0
:1011B90006174183C37C007D007E10750741A8177F
:1011C900A918AA19AB1A120E4750047800800278A0
:1011D90001E86037C37C007D007EC6750742A81709
:1011E900A918AA19AB1A120E474004780080027890
:1011F90001E86017E5152412F523851624851C25B9
:10120900851D26851B271206174183C37C007D0097
:101219007E10750741A817A918AA19AB1A120E470B
:101229004004780080027801E8604FE515240CF548
:1012390023851624851C25851D26851B271206173F
:10124900C37C007D007E00750700A817A918AA199C
:10125900AB1A120E474004780080027801E8600E4C
:1012690085153185163275332D120165800C85156A
:0B12790031851632753320120165220A
:10128400C3E517940074006480F8E51864809850EE
:101294001B85153185163275332D120165C3740013
:1012A4009517F51774009518F518800C8515318578
:1012B4001632753320120165D3E517946374006404
:1012C40080F8E51864809850026145D3E51794E7E7
:1012D40074036480F8E51864809850657C647D002C
:1012E400A817A9181205DAE5152406F53185163272
:1012F400743028F5331201657C647D00A817A918A1
:101304001205DAA804A9057C0A7D001205DAE515A0
:10131400240CF531851632743028F5331201657CBE
:101324000A7D00A817A9181205DAA804A905E5156D
:101334002412F531851632743028F5331201658193
:1013440021D3E517940974006480F8E51864809843
:10135400500261C1D3E517946374006480F8E51802
:1013640064809850587C647D00A817A9181205DA87
:10137400A804A9057C0A7D001205DAE5152406F502
:1013840031851632743028F5331201657C0A7D00EC
:10139400A817A9181205DAA804A905E515240CF55F
:1013A40031851632743028F533120165E51524129F
:1013B400F5318516327533201201658060C3E51757
:1013C400940074006480F8E518648098404FD3E575
:1013D40017940974006480F8E518648098503E7C82
:1013E4000A7D00A817A9181205DAA804A905E515AD
:1013F4002406F531851632743028F533120165E57B
:1014040015240CF531851632753320120165E51566
:0E1414002412F531851632753320120165223F
:10142200D37C007D007E00750700A815A916AA17B7
:10143200AB18120E4760064004780080027801E87B
:101442006009780079007A007B00228515238516D1
:1014520024851725851826752719120EBF7C007D55
:10146200007E0075074012024D7C007D007E807573
:10147200073F120EB78500158501168502178503F1
:1014820018C3E5199401F519E51A9400F51A8500B7
:10149200238501248502258503267527DC75280FFF
:1014A200752908752A001205208500158501168503
:1014B2000217850318A819A91A1205CB7C187D7288
:1014C2007E3175073F12024DAC15AD16AE17AF183F
:0414D2001203E322FC
:1014D60080030215B6EB5A046005EF5E0470030242
:1014E60015AC1215775F0460F6EB4F60F2EB7004F3
:1014F600FAF9F822CF60DB2481CF5009C39F60023E
:1015060050060215B39F50CAF582EE2E4C4D70055B
:10151600AC820215A275F0007B1A7F80C3E89CE9B5
:101526009DEA9E400DC3E89CF8E99DF9EA9EFAEF14
:1015360042F0DB22ABF0D0E0F8D0E0F9D0E0FAAC34
:101546008220E7101CEC60BAEB2BFBE833F8E9339A
:10155600F9EA33FA8032EF03FF30E705C0F075F0A1
:1015660000E828F8E933F9EA33FA40B930E7C380EE
:10157600ABEED2E7CE33EF33FF92D5EAD2E7CA33EA
:10158600EB33FB5002B2D522EB30E71008B8000C63
:1015960009B900080ABA00040CEC60ECA2D5EC13F9
:1015A600FBEA92E7FA2274FFFBFAF9F822E480F8E4
:0C15B600A2D574FF13FB7A80E480EF22C2
:1015C2007581807582E975831D7809790C11001186
:1015D20008120F1A751540120F92850009751541F0
:1015E200120F9285000A751542120F9285000B7533
:1015F2001543120F9285000CA80A110CAC00AD0124
:10160200AE02AF03780079007A7F7B4391D67C00EB
:101612007D007E8075073F120EB78500118501128D
:101622008502138503147C007D407E1C75074612DB
:10163200024D8500118501128502138503147CC7B2
:101642007D7B7E8F75073C91D685001185011285C1
:10165200021385031485001585011685021785037B
:10166200189122AC00AD01AE02AF03780079E07AA6
:10167200767B4591D685001185011285021385037B
:10168200147C007D807E88750743120EB785001199
:10169200850112850213850314A80B110CAC00AD51
:1016A20001AE02AF03780079007A7F7B4391D67C4A
:1016B200007D007E8075073F120EB77C007D007EA4
:1016C200C875074212024D85000D85010E85020F75
:1016D200850310AC00AD01AE02AF03780079007A49
:1016E200FA7B4391D685000D85010E85020F850395
:1016F20010751513751601850917E4F518518475CF
:101702001513751603850A17E4F518518475151318
:10171200751605850B17E4F51851847515137516A2
:1017220007850C17E4F5185184751555751601A82F
:1017320009110C7CA17DA07EA075073C12024D858B
:10174200001785011885021985031A751B021119E4
:101752007515557516038511178512188513198588
:10176200141A751B021119751555751605850D1775
:10177200850E18850F1985101A751B01111975151B
:1017820055751607A80C110C7CA17DA07EA07507CB
:101792003C12024D85001785011885021985031A2E
:1017A200751B021119751540850916120FC57D04A6
:0F17B2007E0B7F2FDFFEDEFCDDFA00A1D680FE6E
:100FDC00FFE6DB2EC4FF7F3F80EFFFBE90E1A93E12
:100FEC00EC8276BE82AD2B3E0E3CC3BD87D1133D49
:040FFC004178D3BBAA
:1017C10040444E5F4E4440404040404040404040D5
:1017D100404040404040405F4547405F515B405F73
:1017E1004541405F555F4057555D4057555F4051FA
:1017F1005F50404040405F455F405F514E405FD188
:101801005B40444444405F514E405F455F405F51FF
:101811005B404040405F514E405F455F40415F410A
:10182100405F455F40404040404040404040404074
:1018310040404040404040404040444E5F4E444064
:1018410000FE828282FE0000081C3E7F1C1C1C00E0
:101851000000000000000000000000000000000087
:101861000000000000000000000000000000000077
:10187100000000000000000000000000000000FF68
:101881000030408040380402041800383838FE7CAB
:1018910038100000000000000000000000000000FF
:1018A1000000000000000000000000000000000037
:1018B1000000000000000000000000000000000027
:1018C1000000000000000000000000000000000017
:1018D1000000000000000000000000000000000007
:1018E10000000000000000000000000000000000F7
:1018F100000000000000000000000000000000FFE8
:101901000000C020C0000000000000000000000036
:1019110000000000000000000000000000000000C6
:1019210000000000000000000000000000000000B6
:1019310000000000000000000000000000000000A6
:10194100008282FE80800000081C3E7F1C1C1C005F
:101951000000000000000000000000000000000086
:101961000000000000000000000000000000000076
:10197100000000000000000000000000000000FF67
:1019810000C03F003FC00000070507007E81818144
:101991004200000000000000000000000000000004
:1019A1000000000000000000000000000000000036
:1019B1000000000000000000000000000000000026
:1019C1000000000000000000000000000000000016
:1019D1000000000000000000000000000000000006
:1019E10000000000000000000000000000000000F6
:1019F100000000000000000000000000000000FFE7
:101A010000010202020100000000000000000000CD
:101A110000000000000000000000000000000000C5
:101A210000000000000000000000000000000000B5
:101A310000000000000000000000000000000000A5
:101A410000F29292929E0000081C3E7F1C1C1C001A
:101A51000000000000000000000000000000000085
:101A61000000000000000000000000000000000075
:101A7100000000000000000000000000000000FF66
:101A810000492A1C7F1C2A4900007F404040005029
:101A910020500000000000000000000000000000D5
:101AA1000000000000000000000000000000000035
:101AB1000000000000000000000000000000000025
:101AC1000000000000000000000000000000000015
:101AD1000000000000000000000000000000000005
:101AE10000000000000000000000000000000000F5
:101AF100000000000000000000000000000000FFE6
:101B010000000000000000000000000000000000D4
:101B110000000000000000000000000000000000C4
:101B210000000000000000000000000000000000B4
:101B310000000000000000000000000000000000A4
:101B41000082929292FE0000081C3E7F1C1C1C0029
:101B51000000000000000000000000000000000084
:101B61000000000000000000000000000000000074
:101B7100000000000000000000000000000000FF65
:101B8100003E4080403E0000E80000081C3E7F1CF3
:101B91001C1C00000000000000000000000000000C
:101BA1000000000000000000000000000000000034
:101BB1000000000000000000000000000000000024
:101BC1000000000000000000002F000000000700DE
:101BD100070000147F147F1400242A7F2A12006258
:101BE1006408132300364955225000000503000004
:101BF10000001C224100000041221C000014083E8C
:101C010008140008083E0808000000A06000000851
:101C110008080808000060600000002010080402A5
:101C2100003E5149453E0000427F40000042615163
:101C31004946002141454B31001814127F100027FD
:101C410045454539003C4A494930000171090503C0
:101C510000364949493600064949291E00003636F1
:101C61000000000056360000000814224100001454
:101C71001414141400004122140800020151090631
:101C810000324959513E007C1211127C007F4949B2
:101C91004936003E41414122007F4141221C007FE3
:101CA10049494941007F09090901003E4149497AF1
:101CB100007F0808087F0000417F4100002040416B
:101CC1003F01007F08142241007F40404040007FD7
:101CD100020C027F007F0408107F003E4141413E1B
:101CE100007F09090906003E4151215E007F091963
:101CF10029460046494949310001017F0101003F60
:101D01004040403F001F2040201F003F4038403FDF
:101D11000063140814630007087008070061514943
:101D2100454300007F4141000002040810200000EB
:101D310041417F0000040201020400404040404054
:101D4100000001020400002054545478007F4844EC
:101D5100443800384444442000384444487F003823
:101D61005454541800087E0901020018A4A4A47C4C
:101D7100007F080404780000447D40000040808416
:101D81007D00007F102844000000417F4000007C5E
:101D910004180478007C080404780038444444386A
:101DA10000FC242424180018242418FC007C0804B6
:101DB100040800485454542000043F444020003C8F
:101DC1004040207C001C2040201C003C4030403C16
:101DD100004428102844001CA0A0A07C00446454A6
:081DE1004C44141414141414F2
:011DE90000F9
:011DEA0000F8
:011DEB0000F7
:011DEC0000F6
:041DED0000000000F2
:041DF10000000000EE
:00000001FF
