:1000000002080202000000000000000200000000E0
:1000100000000002000000000000000200000000DC
:06002000000000020000D8
:10002600754F00754F00C3E54F94085029A94FE559
:100036004E098002C313D9FCF8530001E813E5B05A
:1000460092E2F5B0C3E5B092E3F5B0D3E5B092E342
:07005600F5B0054F80D02238
:10005D00754E00754F00755000755100755200D3E7
:10006D00E5B092E2F5B0754E00C3E54E94095033FC
:10007D00C3E5B092E3F5B0E5B0A2E2E433F54FE4A9
:10008D00F550D3E5B092E3F5B0AA4EA950E54F0A6D
:10009D008005C333C933C9DAF9F84251E942520533
:0F00AD004E80C6C3E5B092E2F5B0A851A9522229
:0800BC00C3E5B092E4F5B022A7
:1000C400C3E5B092E4F5B0D3E5B092E3F5B0D3E57F
:0600D400B092E4F5B02239
:0200DA00002202
:0900DC007E0B7FB2DFFEDEFC2288
:0600E5007F18DFFE00227F
:1000EB00754D0011C4754EAC1126115D85004D1177
:0400FB00BCA84D222E
:1000FF00BD000BB90029E88CF084F8ACF022E4CDF8
:10010F00FF75F008E828F8E933F9ED33FDE99CEDC8
:10011F009F4005FDE99CF908D5F0E9E4C9FC22EC04
:10012F00FFF5F0E98420D21CF9ACF075F008E8284F
:10013F00F8EC33FC40079F5006D5F0F222C39FFC2A
:05014F0008D5F0EA22D2
:10015400E54D5480F8630080E860047800800278FC
:1001640001E8139287E54D5440F8630040E86004C9
:10017400780080027801E8139286E54D5420F863F4
:100184000020E86004780080027801E8139285E595
:100194004D5410F8630010E8600478008002780180
:1001A400E8139284E5086004780080027801E8137B
:1001B40092A6D2A711DAC2A7E54D5408F863000845
:1001C400E86004780080027801E8139287E54D54D2
:1001D40004F8630004E86004780080027801E813FE
:1001E4009286E54D5402F8630002E86004780080CA
:1001F400027801E8139285E54D5401F8630001E8A3
:100204006004780080027801E8139284E5086004B1
:10021400780080027801E81392A6D2A711DAC2A767
:0B022400E508600411DC800211E522F7
:10022F00C2D5ED30E709B2D5E4C39CFCE49DFDE9EE
:10023F0030E715B2D5E4C398F8E499F91200FFC37B
:10024F00E49CFCE49DFD80031200FF30D507C3E45E
:06025F0098F8E499F92271
:0C026500750800854A4D315475080122CF
:10027100D3E54A9400402311C4754E0C1126854ADA
:100281004E11267E277FE8DFFEDEFC11BC11EBE874
:0D029100654A70037800227801227802226D
:10029E008019754A80802E754AC08029754A9480CF
:1002AE0024754AD4801F754A80801AE54A6401601D
:1002BE00E1E54A640260E0E54A640360DFE54A6412
:1002CE000460DE80E1C3E54B9401F8E54A28F88529
:1002DE00004A75080185004D3154750800854C4D56
:0602EE00315475080122E5
:1002F400754600754700754700C3E54794034002FF
:1003040061887903E547098002C333D9FCF8744056
:1003140028F54D3154754600C3E546940840026102
:1003240084804BE54624D1F9E4340AFA85018285B8
:100334000283E493F885004A51658040E54624D958
:10034400F9E4340AFA850182850283E493F885008E
:100354004A51658027E54624C9F9E4340AFA85013F
:1003640082850283E493F885004A5165800EE5474F
:10037400640160AFE547640260C280D90546611C30
:05038400054741FD22C8
:10038900C3E548940074006480F8E5496480985096
:100399001A85474A85464B754C2D519EC374009565
:1003A90048F54874009549F549800B85474A8546C3
:1003B9004B754C20519ED3E548946374006480F8D2
:1003C900E5496480984054D3E54894E77403648010
:1003D900F8E54964809850437C647D00A848A949A0
:1003E900512F743028F54A51657C647D00A848A9CD
:1003F90049512FA804A9057C0A7D00512F74302882
:10040900F54A51657C0A7D00A848A949512FA804DD
:10041900A905743028F54A516581BED3E548940988
:1004290074006480F8E5496480984048D3E54894AD
:100439006374006480F8E5496480985037754A20F0
:1004490051657C647D00A848A949512FA804A905D4
:100459007C0A7D00512F743028F54A51657C0A7D4C
:1004690000A848A949512FA804A905743028F54ABC
:1004790051658041C3E548940074006480F8E549FA
:100489006480984030D3E548940974006480F8E5A5
:1004990049648098501F754A205165754A205165F5
:1004A9007C0A7D00A848A949512FA804A9057430E0
:0604B90028F54A516522FE
:0904BF0075B000754A0A51712262
:1004C800C2A7C2A611DC11DC11DCC287C286C285B4
:1004D800C284D285D284D2A711DAC2A711DCD2A7EE
:1004E80011DAC2A711DCD2A711DAC2A711DCD285B2
:1004F800C284D2A711DAC2A711DCC287C286C2851C
:10050800D285C284D2A711DAC2A7C285D287D2A760
:1005180011DAC2A711DCC287D284D2A711DAC2A726
:10052800C284D2A711DAC2A711DCC284D2A711DA19
:10053800C2A7D284D2A711DAC2A711DCC284D2A77B
:1005480011DAC2A7D287D286D285D284D2A711DA8D
:08055800C2A711DC75080122A5
:1005600075420075430011C4754EA21126115D7AC3
:1005700001E98500420A8008A2E713C54213C5427B
:0B058000DAF6F54311BCA842A94322A3
:10058B0075A00FC2A591C8754D013154754D0C3135
:06059B005451F491BF224F
:0805A100E493F608A3D9F92246
:1005A90075420075430011C4754EA11126115D7A7B
:1005B90001E98500420A8008A2E713C54213C54232
:0B05C900DAF6F54311BCA842A943225A
:1005D40020A20A7E4E7FD1DFFEDEFC0542D3747D6D
:1005E4006480F8E54264809840037542C920A30AF8
:1005F4007E4E7FD1DFFEDEFC1542C374C96480F8F1
:0D060400E542648098500375427DA84222B3
:0A06110011C4754EEE112611BC2233
:10061B008019754280802E7542C080297542948066
:10062B00247542D4801F754280801AE542640160B4
:10063B00E1E542640260E0E542640360DFE54264A9
:10064B000460DE80E1C3E5439401F8E54228F885B8
:10065B00004285004D3154750800754500E5442571
:10066B0045F8E6600DE5442545F8864A5165054594
:06067B0080EB750801226E
:100681007544007801E542088007C333C54333C58B
:1006910043D8F7F54211C4754E011126754400C3C4
:1006A100E54494095032AA44E543A8420A8006A2CF
:1006B100E713C813C8DAF8F9530001530100E8132E
:1006C100E5B092E2F5B0C3E5B092E3F5B0D3E5B0A1
:1006D10092E3F5B0054480C77E277FE8DFFEDEFCAC
:0306E10011BC2227
:1006E4007544007801E542088007C333C54333C528
:1006F40043D8F7F54211C4754E021126754400C360
:10070400E54494095032AA44E543A8420A8006A26B
:10071400E713C813C8DAF8F9530001530100E813CA
:10072400E5B092E2F5B0C3E5B092E3F5B0D3E5B03D
:1007340092E3F5B0054480C77E277FE8DFFEDEFC48
:0307440011BC22C3
:10074700854246854347854448E54433E495E0F5CB
:1007570049718985434AE5422404F54B754C2E516E
:100767009E85434AE5422405F54B74302545F54CF3
:03077700519E226E
:10077A0075440075450011C4754EAA1126115D8590
:10078A00004485014511BCE5445400F8E54554018F
:10079A00F9E849602A74FF5544F874005545F9850B
:1007AA000044850145C3740098F8740199F98500DD
:1007BA0044850145C3740098F544740099F5457859
:1007CA0001E545A944088006A2E713C913C9D8F868
:1007DA00FA850144850245A842A60174015544F8E8
:1007EA0074005545F9E8496006A84376058004A8CF
:0407FA004376002220
:10080200758153753C00753D00753E00753F00755E
:10081200400012058B754201754302758291758302
:100822000A7809790B1205A175440912061B754A4B
:1008320001754B09754C0012029E75420275430206
:1008420075829C75830A7814790B1205A17544147C
:1008520012061B754A02754B09754C0012029E75F1
:1008620042037543027582A775830A781F790B12BA
:1008720005A175441F12061B754A03754B09754C79
:100882000012029E7542047543027582B275830A94
:10089200782A79121205A175442A12061BD3E54162
:1008A20092E0F54112061175423C75433F12077AF8
:1008B20075420D754301853C44853F45120747202B
:1008C200A00F7E757FBADFFEDEFC20A00280FB0552
:1008D20040D3E5409403400375400020A10F7E758C
:1008E2007FBADFFEDEFC20A10280FB1540C3E5409B
:1008F2009401500375400021E9754A02754B017558
:100902004C0112029E754A03754B01754C2012026E
:100912009E754A04754B01754C2012029E853E421B
:100922001205D485003E4103754A03754B01754C8F
:100932000112029E754A02754B01754C2012029EED
:10094200754A04754B01754C2012029E853D421278
:1009520005D485003D4103754A04754B01754C0170
:1009620012029E754A02754B01754C2012029E7549
:100972004A03754B01754C2012029E754A04754B51
:100982000B754C2012029E754A04754B10754C2053
:1009920012029E853E42E53E33E495E0F54312069F
:1009A20081853D42E53D33E495E0F5431206E47569
:1009B2004A0A120271D3E54192E0F5417540008086
:1009C20040754A02754B01754C2012029E754A030E
:1009D200754B01754C2012029E754A04754B0175C8
:1009E2004C2012029E801AE5406401700201FBE570
:1009F2004064027002212AE540640370022159809A
:100A0200C0E54130E0131205A985003E120560855C
:100A1200003DC3E54192E0F5411200EBE85440F994
:100A22006440700E754A04754B0B754C0212029E9F
:100A3200800C754A04754B0B754C2012029E1200F5
:100A4200EBE85420F96420700E754A04754B10755A
:100A52004C0212029E800C754A04754B10754C2094
:100A620012029E75460D754702853E48E53E33E407
:100A720095E0F54912038975460D754703853D4892
:0F0A8200E53D33E495E0F54912038901A980FEB3
:0B0A9100542E437572722F20433A0070
:0B0A9C00542E486967682F20433A0081
:0B0AA700542E4C6F77202F20433A00A4
:100AB200416C61726D733A202020544820202054EA
:020AC2004C00E6
:010AC4000031
:010AC5000030
:010AC600002F
:010AC700002E
:010AC800002D
:080AC900000609090600000007
:080AD10010181C1E1C18100077
:080AD90000000E0E0E000000EB
:00000001FF
