:100000000212B60200000000000000020F90000083
:1000100000000002000000000000000200000000DC
:0E0020000000000200000000000000020000CE
:02002E000022AE
:10003000EB4A6011EF4E7017EA33EB3304600DE4C6
:10004000FBF8F9FA22EE33EF330470F8020169127B
:1000500001345F046009E4CB248150062F5009026B
:1000600001732F4003020170C0E0EC4D7044BE806C
:1000700006D0E0FC02015FE849701CBA8008ECF889
:10008000EDF9EEFA80EBEE8AF0A4F9E5F002011941
:10009000EECAFEEDF9ECF8E88EF0A4FBE5F0C98EAF
:1000A000F0A429F8E435F0CA8EF0A42AF9E435F07A
:1000B0008067E8497005BA80D780C3E88CF0A4ABAC
:1000C000F0E98CF0A42BFBE435F0FFE88DF0A42BD5
:1000D000E5F03FFBE433CC8AF0A42BFBE5F03CFFDA
:1000E000E98DF0A42BFBE5F03FFFE433C88EF0A4CC
:1000F0002BFBE5F03FC83400C98EF0A428F8E5F0EA
:1001000039F9E433CE8AF0A429F9E5F03ECA8DF03E
:10011000A428F8E5F039F9E43AFA33D0E0FC5006C7
:100120000CBC000E804DEB2BFBE833F8E933F9EA09
:1001300033FA8017EED2E7CE33EF33FF92D5EAD20F
:10014000E7CA33EB33FB5002B2D522EB30E710089D
:10015000B8000C09B900080ABA00040CEC6014A23B
:10016000D5EC13FBEA92E7FA2274FFFBFAF9F822C6
:0F017000E480F8A2D574FF13FB7A80E480EF22BD
:10017F0074F8CF6480CFCB6480CBF582047002809B
:10018F0043C3E89CF5F0E99D42F0EA9E42F0EB9FF5
:10019F0045F060305018E5825CFCE582F42855820A
:1001AF00F8502109B9001D0ABA00190B8016E58213
:1001BF0058F8E582F42C5582FC50090DBD00050E50
:1001CF00BE00010FC3E89CF5F0E99D42F0EA9E42A4
:1001DF00F0EB9F45F06007CF4B20E701B3EF2222F2
:1001EF00D296112E112ED295112E112EC296112E9E
:0501FF00112EC2952243
:10020400754A01754B00754C80754D00E54C454DA4
:10021400604E112E112E112E112EC295112E112E5B
:10022400E549554CF8E4554DF9E8496004D2968007
:1002340002C296112E112ED295C3E50892E0F5085C
:10024400209509E50830E002800280F47801E54D4C
:10025400088007C313C54C13C54CD8F7F54D80ACC3
:10026400754A00754B00112E112EC295112E112EB8
:10027400D296112E112E112E112ED295C3E508926D
:10028400E0F508209509E50830E002800280F47565
:100294004A00754B00112E112E309606434A014335
:1002A4004B00112E112E112E112E112E112E112E46
:1002B400112E112E112E112E112E112E112E112E42
:0B02C400112EC295C296A84AA94B2239
:1002CF00C296112E112ED295C3E50892E0F50820A3
:1002DF009509E50830E002800280F4112E112E11ED
:1002EF002E112E112E112E112E112ED296112E11DE
:0202FF002E22AD
:100301008003020428EE33EF3360110460F4EA3312
:10031100EB337009EFFBEEFAEDF9ECF8220460E241
:10032100D3EC98ED99EE9AEFC2E78BF0C2F795F016
:10033100400CEFCBFFEECAFEEDC9FDECC8FC120389
:10034100F385D0F05F04700320D5B7EF0470075038
:1003510002B2D502043292D5EB0460F7E4CBC0E0DF
:10036100C39FFF603B94186008400DD0E0FC02047D
:100371000AE4FCFDCEFB8028EF30E406E4CEFCE489
:10038100CDFBEF30E305E4CECDCCFBEF540760109D
:10039100FFC3EE13FEED13FDEC13FCEB13FBDFF1DA
:1003A10030F52DC3E49BFBE89CF8E99DF9EA9EFA40
:1003B100D0E0FCE8494A4B701122DC028070EB2B43
:1003C100FBE833F8E933F9EA33FAEA30E7EC80394C
:1003D100E82CF8E93DF9EA3EFAD0E0FC50120CBCF9
:1003E1000002804DEA13FAE913F9E813F8EB13FB65
:1003F1008017EED2E7CE33EF33FF92D5EAD2E7CAC8
:1004010033EB33FB5002B2D522EB30E71008B800D2
:100411000C09B900080ABA00040CEC6014A2D5EC6E
:1004210013FBEA92E7FA2274FFFBFAF9F822E4805F
:0D043100F8A2D574FF13FB7A80E480EF225F
:10043E0031EF75493C5104852A495104852B4951A8
:04044E000451CF2264
:100452003392D530D50312047DEB334010E833F8E4
:10046200E933F9EA33FAEB33FBD5F0ED22E5F02478
:100472007EA2D513CB92E7CAC9F822C3E498F8E466
:0904820099F9E49AFAE49BFB22CB
:10048B007A02A948E5470A8005C333C933C9DAF9AB
:10049B00F8E54528FCE54639FD850482850583E4AE
:1004AB0093F8E4A393F9E4A393FAE4A393FB8500F5
:1004BB002A85012B85022C85032DE54745487002C3
:1004CB008060A841A942AA43AB44AC2AAD2BAE2C09
:1004DB00AF2D1130C3E5479401F547E5489400F57E
:1004EB00487E02AD48E5470E8005C333CD33CDDEE4
:1004FB00F9FCE5452CF52EE5463DF52F852E82853D
:10050B002F83E493FCE4A393FDE4A393FEE4A39372
:10051B00F507710185002A85012B85022C85032D9A
:0B052B0081C5A82AA92BAA2CAB2D2209
:08053600EF6480FF12030122B3
:10053E00800302061EEB5A046005EF5E0470030290
:10054E0006141205DF5F0460F6EB4F60F2EB7004E9
:10055E00FAF9F822CF60DB2481CF5009C39F6002E5
:10056E00500602061B9F50CAF582EE2E4C4D7005AA
:10057E00AC8202060A75F0007B1A7F80C3E89CE904
:10058E009DEA9E400DC3E89CF8E99DF9EA9EFAEFBC
:10059E0042F0DB22ABF0D0E0F8D0E0F9D0E0FAACDC
:1005AE008220E7101CEC60BAEB2BFBE833F8E93342
:1005BE00F9EA33FA8032EF03FF30E705C0F075F049
:1005CE0000E828F8E933F9EA33FA40B930E7C38096
:1005DE00ABEED2E7CE33EF33FF92D5EAD2E7CA3392
:1005EE00EB33FB5002B2D522EB30E71008B8000C0B
:1005FE0009B900080ABA00040CEC60ECA2D5EC13A1
:10060E00FBEA92E7FA2274FFFBFAF9F822E480F88B
:0C061E00A2D574FF13FB7A80E480EF2269
:10062A00C37C007D007E00750700A82AA92BAA2C8E
:10063A00AB2D317F4004780080027801E86015E52F
:10064A002A6400F8E52B6400F9E52C6400FAE52D2C
:0D065A006480FB22A82AA92BAA2CAB2D221C
:0F066700AB01AA007900780075F010EB915222D8
:10067600EAD2E7CA33EB3392D524814006E4F8F98F
:10068600FAFB22FBE4C8C9CACB24E0501174FF80F0
:10069600EDC3CB13CBCA13CAC913C9C813C8047098
:1006A600F030D5DEC3E498F8E499F9E49AFAE49BCD
:0206B600FB2225
:1006B800751F00752000851D1FE4F520A91F78000F
:1006C80085001F850120E51E4200E4420185001FC8
:0406D8008501202256
:1006DC00751F00752000752180752200E5214522CB
:1006EC006044112E112ED296112E112ED295C3E5E7
:1006FC000892E0F508209509E50830E002800280B8
:10070C00F4309608E521421FE5224220112E112ECD
:10071C00C2957801E522088007C313C52113C521B2
:10072C00D8F7F52280B6D296112E112EE51D451E56
:10073C006002C296112E112ED295C3E50892E0F5F7
:10074C0008209509E50830E002800280F4112E1192
:0E075C002EC295112E112EC296A81FA9202282
:10076A007521007CAE7D477E6175073FA81DA91ED5
:10077A00AA1FAB20317F6004780080027801E8600C
:10078A00127521007530487531E175323A75333F7B
:10079A000208EB7C667D667EA675073FA81DA91E2A
:1007AA00AA1FAB20317F6004780080027801E860DC
:1007BA001275210175301F75318575326B75333F9E
:1007CA000208EB7C337D337EF375073FA81DA91E13
:1007DA00AA1FAB20317F6004780080027801E860AC
:1007EA00127521027530F675312875329C75333FC2
:1007FA000208EB7C007D007E20750740A81DA91E1B
:10080A00AA1FAB2012017F6004780080027801E8F9
:10081A00601175210375305C75318F7532C275337D
:10082A003F01EB7C007D007E80750740A81DA91E54
:10083A00AA1FAB2012017F6004780080027801E8C9
:10084A0060117521047530AE7531477532117533F3
:10085A004001EB7C667D667E96750740A81DA91E41
:10086A00AA1FAB2012017F6004780080027801E899
:10087A00601175210575300A7531D77532237533C4
:10088A0040805E7C337D337EB3750740A81DA91E68
:10089A00AA1FAB2012017F6004780080027801E869
:1008AA0060117521067530857531EB7532417533E6
:1008BA0040802E7C9A7D997E01750741A81DA91E4C
:1008CA00AA1FAB2012017F6004780080027801E839
:1008DA00600F75210775303375313375328B753377
:1008EA00407905E521098002C333D9FCF885002146
:0A08FA00752A0185002B12043E222E
:10090400D296D295C3E50892E0F508209509E5084A
:0809140030E002800280F422B1
:10091C00851D2A851E2B851F2C85202D12062A85C8
:10092C0000228501238502248503257C007D007E21
:10093C000075070012017F6004780080027801E8DE
:10094C006009780079007A007B0022D37C007D005E
:10095C007E8075073FA822A923AA24AB2512017F0C
:10096C0060064004780180027800850021E8601F51
:10097C00AC22AD23AE24AF25780079007A807B3F82
:10098C0012053E850022850123850224850325A8B6
:10099C0022A923AA24AB25AC22AD23AE24AF251269
:1009AC0000308500268501278502288503298500CE
:1009BC00418501428502438503447545E97546121C
:1009CC0075470575480012048BAC22AD23AE24AFDD
:1009DC0025120030850022850123850224850325FC
:1009EC00852641852742852843852944754501750F
:1009FC00461375470475480012048BAC00AD01AE6C
:100A0C0002AF03A822A923AA24AB2512053E850018
:100A1C0022850123850224850325E521601FAC2254
:100A2C00AD23AE24AF2578DB790F7AC97B3F120555
:100A3C0036850022850123850224850325C37C008D
:100A4C007D007E00750700A81DA91EAA1FAB2012F1
:100A5C00017F4004780080027801E86016E522648A
:100A6C0000F8E5236400F9E5246400FAE5256480C8
:100A7C00FB8008A822A923AA24AB25850022850186
:080A8C002385022485032522C5
:080A9400D3E50892E0F5082209
:100A9C00750D001201EF75493C12020475490312E1
:100AAC0002041201EF75493D120204751D01751EF9
:100ABC00001206DC85000D751D01751E001206DC8A
:100ACC00850D1D85001E1206B885003A85013B7503
:100ADC001D01751E001206DC85000D751D01751EAD
:100AEC00001206DC850D1D85001E1206B88500342B
:100AFC00850135751D01751E001206DC85000D750E
:100B0C001D00751E001206DC850D1D85001E1206CB
:0B0B1C00B88500388501391202CF2295
:100B2700803C75F008758200E828F8E933F9CA3384
:100B3700CACB33CBC58233C5829CEA9DEB9EE58247
:100B47009F400CF582E99CF9EA9DFAEB9EFB08D5DC
:100B5700F0D6E4C9FCE4CAFDE4CBFEAF8222EF6025
:100B67000280BFEE6002805BED6002802DEB8CF0AF
:100B770084C8C9CAFBE5F0CCFE7F18E828F8E9333A
:100B8700F9EA33FAEB33FBEC33FC10D7039E40044E
:100B9700EC9EFC08DFE5E4FEFD227F18E828F8E973
:100BA70033F9EA33FAEB33FBCE33CE10D7059CEE9D
:100BB7009D4007EB9CFBEE9DFE08DFE0E4CEFDE4E5
:100BC700CBFC2275F010E828F8E933F9EA33FACBC1
:100BD70033CBCF33CF10D7079CEB9DEF9E400AEA6C
:100BE7009CFAEB9DFBEF9EFF08D5F0DAE4CAFCE424
:060BF700CBFDE4CFFE225D
:100BFD0031047EC37F8CDFFEDEFC5194752A0075B7
:100C0D002B7012043E752A01752BA012043E752A15
:100C1D0002752B0012043E751D66751E66751FA6A6
:070C2D0075203F12076A2247
:100C3400A83AA93B120667AC30AD31AE32AF3312DD
:100C4400003012067685003A85013BA834A9351296
:100C54000667AC30AD31AE32AF33120030120676D7
:100C6400850034850135A838A939120667AC30AD42
:100C740031AE32AF3312003012067685003885016A
:020C8400392213
:100C8600850D2A850E2B850F2C85102D12062A859B
:100C9600001985011A85021B85031C85112A8512F8
:100CA6002B85132C85142D12062AC3AC00AD01AE7C
:100CB60002AF03A819A91AAA1BAB1C12017F500484
:100CC600780080027801E87002A18BAC0DAD0EAE03
:100CD6000FAF10A811A912AA13AB1412053E850076
:100CE6001D85011E85021F850320311C8500158583
:100CF6000116850217850318C37C007D007E0075EA
:100D06000700A80DA90EAA0FAB1012017F400478A8
:100D16000080027801E870028062C37C007D007E5C
:100D260000750700A811A912AA13AB1412017F506F
:100D360004780080027801E86022A815A916AA178F
:100D4600AB187CDB7D0F7E497507401203018500D9
:100D56001585011685021785031880207CDB7D0F1B
:100D66007E49750740A815A916AA17AB18120536AD
:100D7600850015850116850217850318A815A9167D
:100D8600AA17AB1822AC11AD12AE13AF14A80DA959
:100D96000EAA0FAB1012053E85001D85011E8502A9
:100DA6001F850320311CE86400F515E96400F5167B
:100DB600EA6400F517EB6480F518C37C007D007EBD
:100DC60000750700A811A912AA13AB1412017F40DF
:100DD60004780080027801E860227CDB7D0F7EC902
:100DE60075073FA815A916AA17AB18120536850070
:100DF600158501168502178503188020A815A916E2
:100E0600AA17AB187CDB7D0F7EC975073F1203015D
:100E1600850015850116850217850318A815A916DC
:050E2600AA17AB182221
:080E2B00E493F608A3D9F922B3
:100E33007580FF7590FF75A0FF75B0FC758A1875F6
:0E0E43008CFC75890175881075A88271FD22DE
:100E5100750900750A00750B00750C00519C9134E1
:100E6100A838A93912066785000D85010E85020F84
:100E7100850310A83AA93B12066785001185011266
:100E8100850213850314918685000985010A85026F
:100E91000B85030C7C747D467E047507BF1203012C
:100EA10085000985010A85020B85030CC37C007D41
:100EB100007E0075070012017F40047800800278EF
:100EC10001E86020A809A90AAA0BAB0C7C877D1652
:100ED1007EC975074012030185000985010A850253
:100EE1000B85030CD37C877D167EC9750740A80945
:100EF100A90AAA0BAB0C12017F600640047801809D
:100F0100027800E860207C877D167EC9750740A8BD
:100F110009A90AAA0BAB0C12053685000985010A3D
:100F210085020B85030CA809A90AAA0BAB0C7C4608
:100F31007D277E6575074212003085000985010A0B
:0A0F410085020B85030C12067622D0
:100F4B00C2D5EF30E70FB2D5E4C39CFCE49DFDE4C2
:100F5B009EFEE49FFFEB30E717B2D5120F81120B09
:100F6B0027E4C39CFCE49DFDE49EFEE49FFF80030D
:100F7B00120B2730D50DE4C398F8E499F9E49AFAEB
:050F8B00E49BFB2222A3
:100F9000C000C001C002C003C004C005C006C00735
:100FA000C0D0C0E0C0F0C082C083758A18758CFCC8
:100FB000021233C3E54094084027C3E54094105023
:100FC00020C3E5409408F8E49400F9743028FA74DA
:100FD0001339FB850282850383E493F885008080C2
:100FE000037580FF75B0F075A0FD02128FC3E54058
:100FF00094104027C3E54094185020C3E540941056
:10100000F8E49400F9743028FA741339FB850282ED
:10101000850383E493F885008080037580FF75B0B5
:10102000F075A0FB418FC3E54094184027C3E5400D
:1010300094205020C3E5409418F8E49400F97430EB
:1010400028FA741339FB850282850383E493F885BB
:10105000008080037580FF75B0F075A0F7418FC3E5
:10106000E54094204027C3E54094285020C3E54044
:101070009420F8E49400F9743028FA741339FB854D
:101080000282850383E493F885008080037580FFE6
:1010900075B0F075A0EF418FC3E54094284027C399
:1010A000E54094305020C3E5409428F8E49400F9DA
:1010B000743028FA741339FB850282850383E49324
:1010C000F885008080037580FF75B0F075A0DF4162
:1010D0008FC3E54094304027C3E54094385020C387
:1010E000E5409430F8E49400F9743028FA74133928
:1010F000FB850282850383E493F885008080037575
:1011000080FF75B0F075A0BF418FC3E540943840B3
:1011100027C3E540943C5020C3E5409438F8E4945C
:1011200000F9743028FA741339FB85028285038331
:10113000E493F885008080037580FF75B0F075A09A
:101140007F418F7C647D007E00750700A83CA93D2F
:10115000AA3EAB3F120F4B850036742628FC741351
:1011600039FD850482850583E493F885008075A0A8
:10117000FF75B0EF418F7C0A7D007E00750700A8E7
:101180003CA93DAA3EAB3F120F4B7C0A7D007E007E
:10119000750700120F4BA804A905AA06AB07850026
:1011A00036742628FC741339FD850482850583E492
:1011B00093F885008075A0FF75B0DF418F7C0A7DB4
:1011C000007E00750700A83CA93DAA3EAB3F120F68
:1011D0004BA804A905AA06AB07850036742628FC8F
:1011E000741339FD850482850583E493F8850080B6
:1011F00075A0FF75B0BF418F75809C75A0FF75B05D
:101200007F418FC3E5409400401EC3E540940850E1
:1012100017E5402430F9E43413FA8501828502830E
:10122000E493F885008080037580FF75B0F075A0A9
:10123000FE805CE53764017003020FB3E53764029A
:101240007003020FEDE537640370020126E5376491
:10125000047002015FE537640570020198E53764A8
:1012600006700201D1E53764077002210AE5376490
:101270000870022143E537640970022176E537647E
:101280000A700221BDE537640B700221F8410305A5
:1012900037D3E537940B4003753700D083D082D025
:1012A000F0D0E0D0D0D007D006D005D004D003D005
:0612B00002D001D0003263
:1012B600758180121338120E33120E5185003C854B
:1012C600013D85023E85033F7C067D007E00750755
:1012D60000120F4B8500407EC37F8CDFFEDEFC8054
:0312E600D880FEAF
:0E13380078307911758215758313120E2B22F1
:1012E900063C04427D9F6A425C900142604DBB40CE
:0812F90051EC473EDE8D1FBBE6
:10130100063C0442C0598B4274044442F99B4F414C
:041311000000803F19
:041315000000803F15
:021319000000D2
:01131B0000D1
:01131C0000D0
:02131D000000CE
:02131F000000CC
:0413210000000000C8
:0113250000C7
:0A132600C0F9A4B0999282F88090FB
:08133000FEFDFBF7EFDFBF7FBC
:00000001FF
