:100000000200EF02000000000000000200000000FB
:1000100000000002000000000000000200000000DC
:0E0020000000000200000000000000020000CE
:10002E00E50B2408F9E43401FA850182850283E4A4
:07003E0093F864FFF5902226
:10004500E50B24FFF9E43400FA850182850283E497
:0700550093F864FFF590220F
:10005C00E5B020E412E5B020E40280F9E509A2E065
:10006C00B3E50992E0F509800E850A0B112E800E7E
:10007C00850A0B11458007E50920E0ED80F27E141E
:07008C007F73DFFEDEFC22A2
:10009300E5B0A2E2B3E50992E2F509E50920E13012
:1000A300E50930E22BE5B020E3140508C3740864C6
:1000B30080F8E508648098400375080880121508E5
:1000C300D374006480F8E5086480985003750800D1
:0D00D300E509A2E2E50992E1F509A808227D
:0800E000E493F608A3D9F9220C
:0700E80075900075B01C22A9
:1000EF0075810C11E8119385000A115C80F780FE71
:0900FF00000103070F1F3F7FFF02
:09010800000102040810204080EF
:00000001FF
