:10000000A4C0FECFFDCFFCCFFBCFFACFF9CFF8CF06
:04001000F7CFF6CF61
:10014A00BFE9BDBFB0E0BEBF2F923F92D8DF06B372
:10015A0000950F70102F003069F0312EB9E02B2E68
:10016A009BDF2CE215ED09EA0A95F1F71A95E1F7FA
:0C017A002A95D1F7ECCF3F902F90FFCFDB
:10010800B0E8B6BDB0E0B6BDBFE0B8BBB0E1B7BBC4
:10011800B0E0BFBDB0E0B3BFB0E0B2BFB0E0B6BFC3
:10012800B0E0B9BDB0E0BBBFB0E0B5BFB0E0B9BFAB
:10013800B0E8B8B9B0E0B3B9B0E0B4BBB0E0B6B9B4
:02014800089518
:1000A2002F923F923F922F92B5E03B2ED3DF2F90BB
:1000B2003F903F922F92232CB8E03B2ECBDF2F9024
:1000C2003F90A7DF1DE007E70A95F1F71A95E1F7E0
:1000D200A0DF22E013EF01EB0A95F1F71A95E1F7A1
:1000E2002A95D1F700003F92B5E03B2EB3DF3F9057
:1000F200032D0095B8E03B2E202EACDF8ADF89DF8E
:060102003F902F900895CC
:10005600CF93DF93CDB7DEB72197CDBFDEBF219615
:100066003882188100E00117A0F4022D01700030DB
:1000760041F0CDDF1DE007E70A95F1F71A95E1F7A4
:1000860001C0C5DF022D0695202E08810150088388
:0C009600E8CFCDBFDEBFDF91CF91089511
:100014001CE000E00117A0F4B8B3B061B8BB09E17B
:100024000A95F1F700000000B8B3BF7EB8BB09E33E
:100034000A95F1F700000000012F0150102FE9CFBD
:1000440019E009E70A95F1F71A95E1F700000000B5
:0200540008950D
:00000001FF
