:1000000002138F0200000000000000020000000048
:1000100000000002000000000000000200000000DC
:0E0020000000000200000000000000020000CE
:02002E000022AE
:090030007E0B7FB2DFFEDEFC2234
:060039007F18DFFE00222B
:10003F00E5325480F8630080E8600478008002782D
:10004F0001E8139287E5325440F8630040E86004FA
:10005F00780080027801E8139286E5325420F86325
:10006F000020E86004780080027801E8139285E5AB
:10007F00325410F8630010E86004780080027801B1
:10008F00E8139284E5086004780080027801E81391
:10009F0092A6D2A7112EC2A7E5325408F863000822
:1000AF00E86004780080027801E8139287E5325403
:1000BF0004F8630004E86004780080027801E81314
:1000CF009286E5325402F8630002E86004780080FB
:1000DF00027801E8139285E5325401F8630001E8D4
:1000EF006004780080027801E8139284E5086004C8
:1000FF00780080027801E81392A6D2A7112EC2A72A
:0B010F00E50860041130800211392265
:10011A00803C75F008758200E828F8E933F9CA339B
:10012A00CACB33CBC58233C5829CEA9DEB9EE5825E
:10013A009F400CF582E99CF9EA9DFAEB9EFB08D5F3
:10014A00F0D6E4C9FCE4CAFDE4CBFEAF8222EF603C
:10015A000280BFEE6002805BED6002802DEB8CF0C6
:10016A0084C8C9CAFBE5F0CCFE7F18E828F8E93351
:10017A00F9EA33FAEB33FBEC33FC10D7039E400465
:10018A00EC9EFC08DFE5E4FEFD227F18E828F8E98A
:10019A0033F9EA33FAEB33FBCE33CE10D7059CEEB4
:1001AA009D4007EB9CFBEE9DFE08DFE0E4CEFDE4FC
:1001BA00CBFC2275F010E828F8E933F9EA33FACBD8
:1001CA0033CBCF33CF10D7079CEB9DEF9E400AEA83
:1001DA009CFAEB9DFBEF9EFF08D5F0DAE4CAFCE43B
:0601EA00CBFDE4CFFE2274
:0C01F000750800853132113F75080122AE
:1001FC00C2D5EF30E70FB2D5E4C39CFCE49DFDE41F
:10020C009EFEE49FFFEB30E717B2D51202321201CB
:10021C001AE4C39CFCE49DFDE49EFEE49FFF800376
:10022C0012011A30D50DE4C398F8E499F9E49AFA5E
:05023C00E49BFB2222FF
:10024100C2A0112E112ED2A1C3E50992E0F5092019
:10025100A109E50930E002800280F4112E112E116E
:100261002E112E112E112E112E112ED2A0112E1162
:020271002E223B
:100273008019752C80802E752CC08029752C948054
:1002830024752CD4801F752C80801AE52C640160A2
:10029300E1E52C640260E0E52C640360DFE52C6497
:1002A3000460DE80E1C3E52D9401F8E52C28F88590
:1002B300002C850032113F750800752F00E52E25AF
:1002C3002FF8E6600DE52E252FF8863131F0052F46
:0602D30080EB750801221A
:1002D900752D01752E00752F80753000E52F45307D
:1002E900604E112E112E112E112EC2A1112E112E7A
:1002F900E52C552FF8E45530F9E8496004D2A0807F
:1003090002C2A0112E112ED2A1C3E50992E0F5096E
:1003190020A109E50930E002800280F47801E53086
:10032900088007C313C52F13C52FD8F7F53080AC44
:10033900752D00752E00112E112EC2A1112E112E10
:10034900D2A0112E112E112E112ED2A1C3E5099280
:10035900E0F50920A109E50930E002800280F47581
:100369002D00752E00112E112E30A006432D0143AC
:100379002E00112E112E112E112E112E112E112E8D
:10038900112E112E112E112E112E112E112E112E6C
:0B039900112EC2A1C2A0A82DA92E2287
:1003A40080030204CBEE33EF3360110460F4EA33CC
:1003B400EB337009EFFBEEFAEDF9ECF8220460E29E
:1003C400D3EC98ED99EE9AEFC2E78BF0C2F795F073
:1003D400400CEFCBFFEECAFEEDC9FDECC8FC1204E5
:1003E4009685D0F05F04700320D5B7EF04700750F2
:1003F40002B2D50204D592D5EB0460F7E4CBC0E099
:10040400C39FFF603B94186008400DD0E0FC0204D9
:10041400ADE4FCFDCEFB8028EF30E406E4CEFCE442
:10042400CDFBEF30E305E4CECDCCFBEF54076010F9
:10043400FFC3EE13FEED13FDEC13FCEB13FBDFF136
:1004440030F52DC3E49BFBE89CF8E99DF9EA9EFA9C
:10045400D0E0FCE8494A4B701122DC028070EB2B9F
:10046400FBE833F8E933F9EA33FAEA30E7EC8039A8
:10047400E82CF8E93DF9EA3EFAD0E0FC50120CBC55
:100484000002804DEA13FAE913F9E813F8EB13FBC1
:100494008017EED2E7CE33EF33FF92D5EAD2E7CA24
:1004A40033EB33FB5002B2D522EB30E71008B8002F
:1004B4000C09B900080ABA00040CEC6014A2D5ECCB
:1004C40013FBEA92E7FA2274FFFBFAF9F822E480BC
:0D04D400F8A2D574FF13FB7A80E480EF22BC
:1004E100D2A0D2A1C3E50992E0F50920A109E5094D
:0804F10030E002800280F422D9
:1004F900BD000BB90029E88CF084F8ACF022E4CDFA
:10050900FF75F008E828F8E933F9ED33FDE99CEDCA
:100519009F4005FDE99CF908D5F0E9E4C9FC22EC06
:10052900FFF5F0E98420D21CF9ACF075F008E82851
:10053900F8EC33FC40079F5006D5F0F222C39FFC2C
:0505490008D5F0EA22D4
:10054E00D2A0112E112ED2A1112E112EC2A0112E1B
:05055E00112EC2A122D4
:100563008019752C80802E752CC08029752C948061
:1005730024752CD4801F752C80801AE52C640160AF
:10058300E1E52C640260E0E52C640360DFE52C64A4
:100593000460DE80E1C3E52D9401F8E52C28F8859D
:1005A300002C750801850032113F750800852E3235
:0605B300113F7508012252
:1005B9003392D530D5031205E4EB334010E833F814
:1005C900E933F9EA33FAEB33FBD5F0ED22E5F02410
:1005D9007EA2D513CB92E7CAC9F822C3E498F8E4FE
:0905E90099F9E49AFAE49BFB2263
:1005F200EB4A6011EF4E7017EA33EB3304600DE4FF
:10060200FBF8F9FA22EE33EF330470F802072B12EB
:1006120006F65F046009E4CB248150062F500902DC
:1006220007352F4003020732C0E0EC4D7044BE8014
:1006320006D0E0FC020721E849701CBA8008ECF8F9
:10064200EDF9EEFA80EBEE8AF0A4F9E5F00206DBB2
:10065200EECAFEEDF9ECF8E88EF0A4FBE5F0C98EE7
:10066200F0A429F8E435F0CA8EF0A42AF9E435F0B2
:100672008067E8497005BA80D780C3E88CF0A4ABE4
:10068200F0E98CF0A42BFBE435F0FFE88DF0A42B0D
:10069200E5F03FFBE433CC8AF0A42BFBE5F03CFF12
:1006A200E98DF0A42BFBE5F03FFFE433C88EF0A404
:1006B2002BFBE5F03FC83400C98EF0A428F8E5F022
:1006C20039F9E433CE8AF0A429F9E5F03ECA8DF077
:1006D200A428F8E5F039F9E43AFA33D0E0FC500600
:1006E2000CBC000E804DEB2BFBE833F8E933F9EA42
:1006F20033FA8017EED2E7CE33EF33FF92D5EAD248
:10070200E7CA33EB33FB5002B2D522EB30E71008D5
:10071200B8000C09B900080ABA00040CEC6014A273
:10072200D5EC13FBEA92E7FA2274FFFBFAF9F822FE
:0F073200E480F8A2D574FF13FB7A80E480EF22F5
:08074100EF6480FF1203A42203
:10074900B14E752C9051D985222C51D9E5235400ED
:10075900F8E52454FFF9A801790085002C51D974D2
:0A076900FF5523F52C51D951412210
:10077300752400752500752680752700E526452715
:100783006044112E112ED2A0112E112ED2A1C3E539
:100793000992E0F50920A109E50930E00280028011
:1007A300F430A008E5264224E5274225112E112E18
:1007B300C2A17801E527088007C313C52613C52600
:1007C300D8F7F52780B6D2A0112E112EE5224523A6
:1007D3006002C2A0112E112ED2A1C3E50992E0F549
:1007E3000920A109E50930E002800280F4112E11ED
:0E07F3002EC2A1112E112EC2A0A824A92522CB
:0C0801001204E17EC37F8CDFFEDEFC22CF
:08080D0075F020EB1205B92281
:10081500C2A7C2A6120030120030120030C287C231
:1008250086C285C284D285D284D2A712002EC2A7E1
:10083500120030D2A712002EC2A7120030D2A71282
:10084500002EC2A7120030D285C284D2A712002E74
:10085500C2A7120030C287C286C285D285C284D2A1
:10086500A712002EC2A7C285D287D2A712002EC218
:10087500A7120030C287D284D2A712002EC2A7C207
:1008850084D2A712002EC2A7120030C284D2A712AA
:10089500002EC2A7D284D2A712002EC2A712003002
:1008A500C284D2A712002EC2A7D287D286D285D201
:0F08B50084D2A712002EC2A712003075080122AC
:1008C40074F8CF6480CFCB6480CBF582047002804F
:1008D40043C3E89CF5F0E99D42F0EA9E42F0EB9FA9
:1008E40045F060305018E5825CFCE582F4285582BE
:1008F400F8502109B9001D0ABA00190B8016E582C7
:1009040058F8E582F42C5582FC50090DBD00050E03
:10091400BE00010FC3E89CF5F0E99D42F0EA9E4257
:10092400F0EB9F45F06007CF4B20E701B3EF2222A5
:10093400EAD2E7CA33EB3392D524814006E4F8F9CE
:10094400FAFB22FBE4C8C9CACB24E0501174FF802F
:10095400EDC3CB13CBCA13CAC913C9C813C80470D7
:10096400F030D5DEC3E498F8E499F9E49AFAE49B0C
:02097400FB2264
:10097600C3E5249400E5259400E5269400740064FC
:1009860080F8E527648098502DC374009524F524DB
:1009960074009525F52574009526F526740095278F
:1009A600F52785232C85222D75282D752900752E72
:1009B60028120273801285232C85222D752A207514
:1009C6002B00752E2A120273D3E524940FE5259485
:1009D60027E526940074006480F8E5276480985023
:1009E600026103D3E524949FE5259486E5269401C8
:1009F60074006480F8E527648098400261037C10E7
:100A06007D277E00750700A824A925AA26AB2712F4
:100A160001FC743028F52E85232CE5222401F52DC2
:100A26001205637CE87D037E00750700A824A925CE
:100A3600AA26AB271201FC7C0A7D007E0075070002
:100A46001201FCA804A905AA06AB07743028F52EE6
:100A560085232CE5222402F52D1205637C647D0096
:100A66007E00750700A824A925AA26AB271201FC3B
:100A76007C0A7D007E007507001201FCA804A9050A
:100A8600AA06AB07743028F52E85232CE52224030D
:100A9600F52D1205637C0A7D007E00750700A824EB
:100AA600A925AA26AB271201FC7C0A7D007E0075CB
:100AB60007001201FCA804A905AA06AB0774302892
:100AC600F52E85232CE5222404F52D1205637C0AD8
:100AD6007D007E00750700A824A925AA26AB27124B
:100AE60001FCA804A905AA06AB07743028F52E85D3
:100AF600232CE5222405F52D120563C143D3E524F5
:100B060094E7E5259403E526940074006480F8E5EF
:100B1600276480985002810ED3E524940FE525942E
:100B260027E526940074006480F8E52764809840E1
:100B360002810E7CE87D037E00750700A824A925A6
:100B4600AA26AB271201FC743028F52E85232CE546
:100B5600222401F52D1205637C647D007E00750755
:100B660000A824A925AA26AB271201FC7C0A7D0031
:100B76007E007507001201FCA804A905AA06AB07AA
:100B8600743028F52E85232CE5222402F52D120536
:100B9600637C0A7D007E00750700A824A925AA2685
:100BA600AB271201FC7C0A7D007E0075070012014E
:100BB600FCA804A905AA06AB07743028F52E8523E0
:100BC6002CE5222403F52D1205637C0A7D007E00A8
:100BD600750700A824A925AA26AB271201FCA8049C
:100BE600A905AA06AB07743028F52E85232CE52225
:100BF6002404F52D12056385232CE5222405F52D05
:100C0600752E20120563C143D3E5249463E525942C
:100C160000E526940074006480F8E5276480985007
:100C26000281EFD3E52494E7E5259403E5269400B5
:100C360074006480F8E527648098400281EF7C6444
:100C46007D007E00750700A824A925AA26AB2712D9
:100C560001FC743028F52E85232CE5222401F52D80
:100C66001205637C0A7D007E00750700A824A9256D
:100C7600AA26AB271201FC7C0A7D007E00750700C0
:100C86001201FCA804A905AA06AB07743028F52EA4
:100C960085232CE5222402F52D1205637C0A7D00AE
:100CA6007E00750700A824A925AA26AB271201FCF9
:100CB600A804A905AA06AB07743028F52E85232CAF
:100CC600E5222403F52D12056385232CE522240451
:100CD600F52D752E2012056385232CE5222405F5B6
:100CE6002D752E20120563C143D3E5249409E5250D
:100CF6009400E526940074006480F8E527648098E3
:100D06005002A1A6D3E5249463E5259400E5269434
:100D16000074006480F8E5276480984002A1A67CF0
:100D26000A7D007E00750700A824A925AA26AB2700
:100D36001201FC743028F52E85232CE5222401F5BA
:100D46002D1205637C0A7D007E00750700A824A984
:100D560025AA26AB271201FCA804A905AA06AB07FB
:100D6600743028F52E85232CE5222402F52D120554
:100D76006385232CE5222403F52D752E20120563A9
:100D860085232CE5222404F52D752E201205638576
:100D9600232CE5222405F52D752E20120563C1436B
:100DA600D3E5249400E5259400E5269400740064B8
:100DB60080F8E5276480985002C143D3E52494095E
:100DC600E5259400E526940074006480F8E5276420
:100DD600809850697C0A7D007E00750700A824A9CA
:100DE60025AA26AB271201FCA804A905AA06AB076B
:100DF600743028F52E85232CE5222401F52D1205C5
:100E06006385232CE5222402F52D752E2012056319
:100E160085232CE5222403F52D752E2012056385E6
:100E2600232CE5222404F52D752E20120563852337
:0E0E36002CE5222405F52D752E2012056322D1
:100E440085232C85222D752E2E1205637CE87D03C7
:100E5400A824A9251204F9743028F52E85232CE53D
:100E6400222401F52D120563D3E52694015002C115
:100E7400F17CE87D03A824A9251204F9A804A90596
:100E84007C647D001204F9743028F52E85232CE54A
:100E9400222402F52D120563D3E5269402404E7CEC
:100EA400647D00A824A9251204F9A804A9057C0AD4
:100EB4007D001204F9743028F52E85232CE52224B4
:100EC40003F52D120563D3E526940340207C0A7DA7
:100ED40000A824A9251204F9A804A905743028F54A
:0E0EE4002E85232CE5222404F52D1205632211
:080EF200E493F608A3D9F922EC
:100EFA007580FF7590FF75A0FF75B0FFC2A511152B
:0F0F0A0075320112003F75320C12003F110122A7
:100F1900751900751900C3E51994045046E519249B
:100F290001F52C752D0175134175142075153A7548
:100F39001600752E13120273E5192401F52C752D6F
:100F49000274302519F52E120563E5192401F52CD3
:100F5900752D14751756751800752E17120273051D
:040F69001980B32216
:100F6D00AB01AA007900780075F010EB1205B922DB
:100F7D00800302105DEB5A046005EF5E04700302FE
:100F8D00105312101E5F0460F6EB4F60F2EB70040D
:100F9D00FAF9F822CF60DB2481CF5009C39F60029C
:100FAD00500602105A9F50CAF582EE2E4C4D700518
:100FBD00AC8202104975F0007B1A7F80C3E89CE972
:100FCD009DEA9E400DC3E89CF8E99DF9EA9EFAEF73
:100FDD0042F0DB22ABF0D0E0F8D0E0F9D0E0FAAC93
:100FED008220E7101CEC60BAEB2BFBE833F8E933F9
:100FFD00F9EA33FA8032EF03FF30E705C0F075F000
:10100D0000E828F8E933F9EA33FA40B930E7C3804C
:10101D00ABEED2E7CE33EF33FF92D5EAD2E7CA3348
:10102D00EB33FB5002B2D522EB30E71008B8000CC1
:10103D0009B900080ABA00040CEC60ECA2D5EC1357
:10104D00FBEA92E7FA2274FFFBFAF9F822E480F842
:0C105D00A2D574FF13FB7A80E480EF2220
:10106900751E00751F00752000752100A815A916A9
:10107900AA17AB1812093485001E85011F850220A5
:10108900850321851322851423850024850125855F
:101099000226850327120976A81EA91FAA20AB21BB
:1010A90012080DAC00AD01AE02AF03A815A916AA2E
:1010B90017AB181207417C007D407E1C750746124C
:1010C90005F212093485001E85011F85022085035A
:1010D90021C3E89400E99400EA940074006480FC58
:1010E900EB64809C5019C37400951EF51E7400951D
:1010F9001FF51F74009520F52074009521F521C373
:101109007C007D407E1C750746A815A916AA17AB59
:10111900181208C45004780080027801E86037C3C7
:101129007C007D507EC3750747A815A916AA17AB81
:10113900181208C44004780080027801E86017E5B5
:10114900132406F522851423851E24851F25851958
:1011590026120E44611FC37C007D007E7A75074408
:10116900A815A916AA17AB181208C450047800804C
:10117900027801E86037C37C007D407E1C75074614
:10118900A815A916AA17AB181208C440047800803C
:10119900027801E86017E5132405F52285142385F3
:1011A9001E24851F25851926120E44611FC37C0044
:1011B9007D007EC8750742A815A916AA17AB181293
:1011C90008C45004780080027801E86037C37C00C5
:1011D9007D007E7A750744A815A916AA17AB1812BF
:1011E90008C44004780080027801E86017E51324F8
:1011F90004F522851423851E24851F2585192612A9
:101209000E44611FC37C007D007E20750741A8152F
:10121900A916AA17AB181208C450047800800278DE
:1012290001E86037C37C007D007EC8750742A815B8
:10123900A916AA17AB181208C440047800800278CE
:1012490001E86017E5132403F522851423851E247C
:10125900851F25851926120E44611FC37C007D0058
:101269007E20750741A815A916AA17AB181208C43C
:101279004004780080027801E87002611FE51324B8
:1012890002F522851423851E24851F25851926121A
:101299000E44C37C007D007E00750700A815A916C1
:1012A900AA17AB181208C44004780080027801E834
:1012B900602385142C85132D751A2D751B00752E29
:1012C9001A12027385142CE5132401F52D752E309D
:1012D900120563804185142C85132D751C20751DFD
:1012E90000752E1C120273C37C007D007E80750779
:1012F9003FA815A916AA17AB181208C4400478000C
:1013090080027801E8600F85142CE5132401F52D7E
:07131900752E30120563225E
:101320007522018513238514241207497E147F73C7
:05133000DFFEDEFC22DF
:1013350075140075150075160012054E752C901262
:1013450002D985132C1202D912024112054E752CB1
:10135500911202D9752200752300120773850015B5
:10136500E4F5167522007523001207738500141223
:101375000241A9157800850015850116E51442007E
:0A138500E4420185001585011622DF
:10138F007581807582A4758314780A7909120EF21B
:10139F00120EFA120F19750A00C3E50A94044002DF
:1013AF0081938020750B00750C50802C750B007588
:1013BF000C608024750B00750C70801C750B00750C
:1013CF000C408014E50A640160DAE50A640260DC0F
:1013DF00E50A640360DE80E47400450BF513748046
:1013EF00450CF5144313004314014313E043140059
:1013FF0043130343140071207E027FF1DFFEDEFCF6
:10140F00751300713585000D85010E120F6D850066
:10141F000F8501108502118503127CA67D9B7EC46A
:10142F007507401205F285000F85011085021185A1
:10143F0003127C007DFE7EFF750746120F7D85002F
:10144F000F850110850211850312752204E50A2408
:10145F0001F523850D24850E25E50E33E495E0F582
:10146F0026F52712097675130DE50A2401F5148563
:10147F000F15851016851117851218751904116926
:10148F00050A61A87D047E0B7F2FDFFEDEFCDDFAEF
:05149F000061A580FEC4
:0114A4000047
:0214A500000045
:0214A700000043
:0414A900000000003F
:0214AD002D0010
:0214AF0020001B
:0414B1000000000037
:00000001FF
